{"abi":[{"type":"function","name":"attest","inputs":[{"name":"schemaUID","type":"bytes32","internalType":"SchemaUID"},{"name":"attester","type":"address","internalType":"address"},{"name":"requests","type":"tuple[]","internalType":"struct AttestationRequest[]","components":[{"name":"moduleAddress","type":"address","internalType":"address"},{"name":"expirationTime","type":"uint48","internalType":"uint48"},{"name":"data","type":"bytes","internalType":"bytes"},{"name":"moduleTypes","type":"uint256[]","internalType":"ModuleType[]"}]},{"name":"signature","type":"bytes","internalType":"bytes"}],"outputs":[],"stateMutability":"nonpayable"},{"type":"function","name":"attest","inputs":[{"name":"schemaUID","type":"bytes32","internalType":"SchemaUID"},{"name":"attester","type":"address","internalType":"address"},{"name":"request","type":"tuple","internalType":"struct AttestationRequest","components":[{"name":"moduleAddress","type":"address","internalType":"address"},{"name":"expirationTime","type":"uint48","internalType":"uint48"},{"name":"data","type":"bytes","internalType":"bytes"},{"name":"moduleTypes","type":"uint256[]","internalType":"ModuleType[]"}]},{"name":"signature","type":"bytes","internalType":"bytes"}],"outputs":[],"stateMutability":"nonpayable"},{"type":"function","name":"attest","inputs":[{"name":"schemaUID","type":"bytes32","internalType":"SchemaUID"},{"name":"request","type":"tuple","internalType":"struct AttestationRequest","components":[{"name":"moduleAddress","type":"address","internalType":"address"},{"name":"expirationTime","type":"uint48","internalType":"uint48"},{"name":"data","type":"bytes","internalType":"bytes"},{"name":"moduleTypes","type":"uint256[]","internalType":"ModuleType[]"}]}],"outputs":[],"stateMutability":"nonpayable"},{"type":"function","name":"attest","inputs":[{"name":"schemaUID","type":"bytes32","internalType":"SchemaUID"},{"name":"requests","type":"tuple[]","internalType":"struct AttestationRequest[]","components":[{"name":"moduleAddress","type":"address","internalType":"address"},{"name":"expirationTime","type":"uint48","internalType":"uint48"},{"name":"data","type":"bytes","internalType":"bytes"},{"name":"moduleTypes","type":"uint256[]","internalType":"ModuleType[]"}]}],"outputs":[],"stateMutability":"nonpayable"},{"type":"function","name":"attesterNonce","inputs":[{"name":"attester","type":"address","internalType":"address"}],"outputs":[{"name":"nonce","type":"uint256","internalType":"uint256"}],"stateMutability":"view"},{"type":"function","name":"calcModuleAddress","inputs":[{"name":"salt","type":"bytes32","internalType":"bytes32"},{"name":"initCode","type":"bytes","internalType":"bytes"}],"outputs":[{"name":"","type":"address","internalType":"address"}],"stateMutability":"view"},{"type":"function","name":"check","inputs":[{"name":"module","type":"address","internalType":"address"},{"name":"attesters","type":"address[]","internalType":"address[]"},{"name":"threshold","type":"uint256","internalType":"uint256"}],"outputs":[],"stateMutability":"view"},{"type":"function","name":"check","inputs":[{"name":"module","type":"address","internalType":"address"},{"name":"moduleType","type":"uint256","internalType":"ModuleType"},{"name":"attesters","type":"address[]","internalType":"address[]"},{"name":"threshold","type":"uint256","internalType":"uint256"}],"outputs":[],"stateMutability":"view"},{"type":"function","name":"check","inputs":[{"name":"module","type":"address","internalType":"address"},{"name":"moduleType","type":"uint256","internalType":"ModuleType"}],"outputs":[],"stateMutability":"view"},{"type":"function","name":"check","inputs":[{"name":"module","type":"address","internalType":"address"}],"outputs":[],"stateMutability":"view"},{"type":"function","name":"checkForAccount","inputs":[{"name":"smartAccount","type":"address","internalType":"address"},{"name":"module","type":"address","internalType":"address"}],"outputs":[],"stateMutability":"view"},{"type":"function","name":"checkForAccount","inputs":[{"name":"smartAccount","type":"address","internalType":"address"},{"name":"module","type":"address","internalType":"address"},{"name":"moduleType","type":"uint256","internalType":"ModuleType"}],"outputs":[],"stateMutability":"view"},{"type":"function","name":"deployModule","inputs":[{"name":"salt","type":"bytes32","internalType":"bytes32"},{"name":"resolverUID","type":"bytes32","internalType":"ResolverUID"},{"name":"initCode","type":"bytes","internalType":"bytes"},{"name":"metadata","type":"bytes","internalType":"bytes"},{"name":"resolverContext","type":"bytes","internalType":"bytes"}],"outputs":[{"name":"moduleAddress","type":"address","internalType":"address"}],"stateMutability":"payable"},{"type":"function","name":"deployViaFactory","inputs":[{"name":"factory","type":"address","internalType":"address"},{"name":"callOnFactory","type":"bytes","internalType":"bytes"},{"name":"metadata","type":"bytes","internalType":"bytes"},{"name":"resolverUID","type":"bytes32","internalType":"ResolverUID"},{"name":"resolverContext","type":"bytes","internalType":"bytes"}],"outputs":[{"name":"moduleAddress","type":"address","internalType":"address"}],"stateMutability":"payable"},{"type":"function","name":"eip712Domain","inputs":[],"outputs":[{"name":"fields","type":"bytes1","internalType":"bytes1"},{"name":"name","type":"string","internalType":"string"},{"name":"version","type":"string","internalType":"string"},{"name":"chainId","type":"uint256","internalType":"uint256"},{"name":"verifyingContract","type":"address","internalType":"address"},{"name":"salt","type":"bytes32","internalType":"bytes32"},{"name":"extensions","type":"uint256[]","internalType":"uint256[]"}],"stateMutability":"view"},{"type":"function","name":"findAttestation","inputs":[{"name":"module","type":"address","internalType":"address"},{"name":"attester","type":"address","internalType":"address"}],"outputs":[{"name":"attestation","type":"tuple","internalType":"struct AttestationRecord","components":[{"name":"time","type":"uint48","internalType":"uint48"},{"name":"expirationTime","type":"uint48","internalType":"uint48"},{"name":"revocationTime","type":"uint48","internalType":"uint48"},{"name":"moduleTypes","type":"uint32","internalType":"PackedModuleTypes"},{"name":"moduleAddress","type":"address","internalType":"address"},{"name":"attester","type":"address","internalType":"address"},{"name":"dataPointer","type":"address","internalType":"AttestationDataRef"},{"name":"schemaUID","type":"bytes32","internalType":"SchemaUID"}]}],"stateMutability":"view"},{"type":"function","name":"findAttestations","inputs":[{"name":"module","type":"address","internalType":"address"},{"name":"attesters","type":"address[]","internalType":"address[]"}],"outputs":[{"name":"attestations","type":"tuple[]","internalType":"struct AttestationRecord[]","components":[{"name":"time","type":"uint48","internalType":"uint48"},{"name":"expirationTime","type":"uint48","internalType":"uint48"},{"name":"revocationTime","type":"uint48","internalType":"uint48"},{"name":"moduleTypes","type":"uint32","internalType":"PackedModuleTypes"},{"name":"moduleAddress","type":"address","internalType":"address"},{"name":"attester","type":"address","internalType":"address"},{"name":"dataPointer","type":"address","internalType":"AttestationDataRef"},{"name":"schemaUID","type":"bytes32","internalType":"SchemaUID"}]}],"stateMutability":"view"},{"type":"function","name":"findModule","inputs":[{"name":"moduleAddress","type":"address","internalType":"address"}],"outputs":[{"name":"moduleRecord","type":"tuple","internalType":"struct ModuleRecord","components":[{"name":"resolverUID","type":"bytes32","internalType":"ResolverUID"},{"name":"sender","type":"address","internalType":"address"},{"name":"metadata","type":"bytes","internalType":"bytes"}]}],"stateMutability":"view"},{"type":"function","name":"findResolver","inputs":[{"name":"uid","type":"bytes32","internalType":"ResolverUID"}],"outputs":[{"name":"","type":"tuple","internalType":"struct ResolverRecord","components":[{"name":"resolver","type":"address","internalType":"contract IExternalResolver"},{"name":"resolverOwner","type":"address","internalType":"address"}]}],"stateMutability":"view"},{"type":"function","name":"findSchema","inputs":[{"name":"uid","type":"bytes32","internalType":"SchemaUID"}],"outputs":[{"name":"","type":"tuple","internalType":"struct SchemaRecord","components":[{"name":"registeredAt","type":"uint48","internalType":"uint48"},{"name":"validator","type":"address","internalType":"contract IExternalSchemaValidator"},{"name":"schema","type":"string","internalType":"string"}]}],"stateMutability":"view"},{"type":"function","name":"findTrustedAttesters","inputs":[{"name":"smartAccount","type":"address","internalType":"address"}],"outputs":[{"name":"attesters","type":"address[]","internalType":"address[]"}],"stateMutability":"view"},{"type":"function","name":"getDigest","inputs":[{"name":"request","type":"tuple","internalType":"struct AttestationRequest","components":[{"name":"moduleAddress","type":"address","internalType":"address"},{"name":"expirationTime","type":"uint48","internalType":"uint48"},{"name":"data","type":"bytes","internalType":"bytes"},{"name":"moduleTypes","type":"uint256[]","internalType":"ModuleType[]"}]},{"name":"attester","type":"address","internalType":"address"}],"outputs":[{"name":"digest","type":"bytes32","internalType":"bytes32"}],"stateMutability":"view"},{"type":"function","name":"getDigest","inputs":[{"name":"requests","type":"tuple[]","internalType":"struct RevocationRequest[]","components":[{"name":"moduleAddress","type":"address","internalType":"address"}]},{"name":"attester","type":"address","internalType":"address"}],"outputs":[{"name":"digest","type":"bytes32","internalType":"bytes32"}],"stateMutability":"view"},{"type":"function","name":"getDigest","inputs":[{"name":"request","type":"tuple","internalType":"struct RevocationRequest","components":[{"name":"moduleAddress","type":"address","internalType":"address"}]},{"name":"attester","type":"address","internalType":"address"}],"outputs":[{"name":"digest","type":"bytes32","internalType":"bytes32"}],"stateMutability":"view"},{"type":"function","name":"getDigest","inputs":[{"name":"requests","type":"tuple[]","internalType":"struct AttestationRequest[]","components":[{"name":"moduleAddress","type":"address","internalType":"address"},{"name":"expirationTime","type":"uint48","internalType":"uint48"},{"name":"data","type":"bytes","internalType":"bytes"},{"name":"moduleTypes","type":"uint256[]","internalType":"ModuleType[]"}]},{"name":"attester","type":"address","internalType":"address"}],"outputs":[{"name":"digest","type":"bytes32","internalType":"bytes32"}],"stateMutability":"view"},{"type":"function","name":"registerModule","inputs":[{"name":"resolverUID","type":"bytes32","internalType":"ResolverUID"},{"name":"moduleAddress","type":"address","internalType":"address"},{"name":"metadata","type":"bytes","internalType":"bytes"},{"name":"resolverContext","type":"bytes","internalType":"bytes"}],"outputs":[],"stateMutability":"nonpayable"},{"type":"function","name":"registerResolver","inputs":[{"name":"resolver","type":"address","internalType":"contract IExternalResolver"}],"outputs":[{"name":"uid","type":"bytes32","internalType":"ResolverUID"}],"stateMutability":"nonpayable"},{"type":"function","name":"registerSchema","inputs":[{"name":"schema","type":"string","internalType":"string"},{"name":"validator","type":"address","internalType":"contract IExternalSchemaValidator"}],"outputs":[{"name":"uid","type":"bytes32","internalType":"SchemaUID"}],"stateMutability":"nonpayable"},{"type":"function","name":"revoke","inputs":[{"name":"requests","type":"tuple[]","internalType":"struct RevocationRequest[]","components":[{"name":"moduleAddress","type":"address","internalType":"address"}]}],"outputs":[],"stateMutability":"nonpayable"},{"type":"function","name":"revoke","inputs":[{"name":"attester","type":"address","internalType":"address"},{"name":"requests","type":"tuple[]","internalType":"struct RevocationRequest[]","components":[{"name":"moduleAddress","type":"address","internalType":"address"}]},{"name":"signature","type":"bytes","internalType":"bytes"}],"outputs":[],"stateMutability":"nonpayable"},{"type":"function","name":"revoke","inputs":[{"name":"request","type":"tuple","internalType":"struct RevocationRequest","components":[{"name":"moduleAddress","type":"address","internalType":"address"}]}],"outputs":[],"stateMutability":"nonpayable"},{"type":"function","name":"revoke","inputs":[{"name":"attester","type":"address","internalType":"address"},{"name":"request","type":"tuple","internalType":"struct RevocationRequest","components":[{"name":"moduleAddress","type":"address","internalType":"address"}]},{"name":"signature","type":"bytes","internalType":"bytes"}],"outputs":[],"stateMutability":"nonpayable"},{"type":"function","name":"setResolver","inputs":[{"name":"uid","type":"bytes32","internalType":"ResolverUID"},{"name":"resolver","type":"address","internalType":"contract IExternalResolver"}],"outputs":[],"stateMutability":"nonpayable"},{"type":"function","name":"transferResolverOwnership","inputs":[{"name":"uid","type":"bytes32","internalType":"ResolverUID"},{"name":"newOwner","type":"address","internalType":"address"}],"outputs":[],"stateMutability":"nonpayable"},{"type":"function","name":"trustAttesters","inputs":[{"name":"threshold","type":"uint8","internalType":"uint8"},{"name":"attesters","type":"address[]","internalType":"address[]"}],"outputs":[],"stateMutability":"nonpayable"},{"type":"event","name":"Attested","inputs":[{"name":"moduleAddress","type":"address","indexed":true,"internalType":"address"},{"name":"attester","type":"address","indexed":true,"internalType":"address"},{"name":"schemaUID","type":"bytes32","indexed":false,"internalType":"SchemaUID"},{"name":"sstore2Pointer","type":"address","indexed":true,"internalType":"AttestationDataRef"}],"anonymous":false},{"type":"event","name":"ModuleRegistration","inputs":[{"name":"implementation","type":"address","indexed":true,"internalType":"address"}],"anonymous":false},{"type":"event","name":"NewResolver","inputs":[{"name":"uid","type":"bytes32","indexed":true,"internalType":"ResolverUID"},{"name":"resolver","type":"address","indexed":true,"internalType":"address"}],"anonymous":false},{"type":"event","name":"NewResolverOwner","inputs":[{"name":"uid","type":"bytes32","indexed":true,"internalType":"ResolverUID"},{"name":"newOwner","type":"address","indexed":false,"internalType":"address"}],"anonymous":false},{"type":"event","name":"NewTrustedAttesters","inputs":[{"name":"smartAccount","type":"address","indexed":true,"internalType":"address"}],"anonymous":false},{"type":"event","name":"ResolverRevocationError","inputs":[{"name":"resolver","type":"address","indexed":false,"internalType":"contract IExternalResolver"}],"anonymous":false},{"type":"event","name":"Revoked","inputs":[{"name":"moduleAddress","type":"address","indexed":true,"internalType":"address"},{"name":"revoker","type":"address","indexed":true,"internalType":"address"},{"name":"schema","type":"bytes32","indexed":false,"internalType":"SchemaUID"}],"anonymous":false},{"type":"event","name":"SchemaRegistered","inputs":[{"name":"uid","type":"bytes32","indexed":true,"internalType":"SchemaUID"},{"name":"registerer","type":"address","indexed":true,"internalType":"address"}],"anonymous":false},{"type":"error","name":"AccessDenied","inputs":[]},{"type":"error","name":"AlreadyAttested","inputs":[]},{"type":"error","name":"AlreadyRegistered","inputs":[{"name":"module","type":"address","internalType":"address"}]},{"type":"error","name":"AlreadyRevoked","inputs":[]},{"type":"error","name":"AttestationNotFound","inputs":[]},{"type":"error","name":"DifferentResolvers","inputs":[]},{"type":"error","name":"ExternalError_ModuleRegistration","inputs":[]},{"type":"error","name":"ExternalError_ResolveAttestation","inputs":[]},{"type":"error","name":"ExternalError_ResolveRevocation","inputs":[]},{"type":"error","name":"ExternalError_SchemaValidation","inputs":[]},{"type":"error","name":"FactoryCallFailed","inputs":[{"name":"factory","type":"address","internalType":"address"}]},{"type":"error","name":"InsufficientAttestations","inputs":[]},{"type":"error","name":"InvalidAddress","inputs":[]},{"type":"error","name":"InvalidAttestation","inputs":[]},{"type":"error","name":"InvalidDeployment","inputs":[]},{"type":"error","name":"InvalidExpirationTime","inputs":[]},{"type":"error","name":"InvalidModuleType","inputs":[]},{"type":"error","name":"InvalidModuleTypes","inputs":[]},{"type":"error","name":"InvalidResolver","inputs":[{"name":"resolver","type":"address","internalType":"contract IExternalResolver"}]},{"type":"error","name":"InvalidResolverUID","inputs":[{"name":"uid","type":"bytes32","internalType":"ResolverUID"}]},{"type":"error","name":"InvalidSalt","inputs":[]},{"type":"error","name":"InvalidSchema","inputs":[]},{"type":"error","name":"InvalidSchemaValidator","inputs":[{"name":"validator","type":"address","internalType":"contract IExternalSchemaValidator"}]},{"type":"error","name":"InvalidSignature","inputs":[]},{"type":"error","name":"InvalidThreshold","inputs":[]},{"type":"error","name":"InvalidTrustedAttesterInput","inputs":[]},{"type":"error","name":"ModuleAddressIsNotContract","inputs":[{"name":"moduleAddress","type":"address","internalType":"address"}]},{"type":"error","name":"ModuleNotFoundInRegistry","inputs":[{"name":"module","type":"address","internalType":"address"}]},{"type":"error","name":"NoTrustedAttestersFound","inputs":[]},{"type":"error","name":"ResolverAlreadyExists","inputs":[]},{"type":"error","name":"RevokedAttestation","inputs":[{"name":"attester","type":"address","internalType":"address"}]},{"type":"error","name":"SchemaAlreadyExists","inputs":[{"name":"uid","type":"bytes32","internalType":"SchemaUID"}]}],"bytecode":{"object":"0x610140604052348015610010575f80fd5b5060405161001d90610102565b604051809103905ff080158015610036573d5f803e3d5ffd5b506001600160a01b03166080523060a0524660c05260608061009860408051808201825260128152715268696e6573746f6e65526567697374727960701b60208083019190915282518084019093526004835263076312e360e41b9083015291565b815160209283012081519183019190912060e0829052610100819052604080517f8b73c3c69bb8fe3d512ecc4cf759cc79239f7b179b0ffacaa9a75d522b39400f8152938401929092529082015246606082015230608082015260a09020610120525061010f9050565b6101c8806147ff83390190565b60805160a05160c05160e05161010051610120516146a96101565f395f6120b701525f61217101525f61214b01525f6120fb01525f6120d801525f611b1401526146a95ff3fe6080604052600436106101fc575f3560e01c80637cb2afd811610113578063b65d10121161009d578063dd0fd2781161006d578063dd0fd27814610675578063e14f3d32146106a1578063f05c04e1146106c0578063f095ec1b146106df578063f190e2b1146106fe575f80fd5b8063b65d1012146105df578063b6b791a1146105fe578063c23697a81461062a578063d904862414610649575f80fd5b8063945e3641116100e3578063945e36411461052b57806396fb72171461054a5780639f3e1b5314610569578063b060cb1e14610588578063b50b706b146105b4575f80fd5b80637cb2afd8146104a757806384b0196e146104c657806388dc678d146104ed5780638e6ec8241461050c575f80fd5b80634990a6821161019457806355f47dde1161016457806355f47dde146103a2578063617734d0146103c157806370d2af24146103e057806371c61a2b146103ff57806377efcab414610488575f80fd5b80634990a682146103265780634c13560c146103455780634ece78ca14610364578063529562a114610383575f80fd5b80631d4d9810116101cf5780631d4d98101461028f57806329757d37146102bc5780632b30c899146102db5780632ed9446714610307575f80fd5b806303b79c841461020057806304a1f298146102305780630bb30abc146102515780631896f70a14610270575b5f80fd5b61021361020e36600461374f565b610711565b6040516001600160a01b0390911681526020015b60405180910390f35b34801561023b575f80fd5b5061024f61024a366004613847565b610789565b005b34801561025c575f80fd5b5061024f61026b3660046138cc565b610842565b34801561027b575f80fd5b5061024f61028a366004613923565b610955565b34801561029a575f80fd5b506102ae6102a9366004613951565b610a94565b604051908152602001610227565b3480156102c7575f80fd5b5061024f6102d63660046139b3565b610c7f565b3480156102e6575f80fd5b506102fa6102f5366004613a33565b610d30565b6040516102279190613b01565b348015610312575f80fd5b5061024f610321366004613b4f565b610e71565b348015610331575f80fd5b5061024f610340366004613bad565b610f65565b348015610350575f80fd5b5061024f61035f366004613beb565b610f74565b34801561036f575f80fd5b5061024f61037e366004613c17565b610f7f565b34801561038e575f80fd5b5061024f61039d366004613c75565b611027565b3480156103ad575f80fd5b506102ae6103bc366004613cb3565b611037565b3480156103cc575f80fd5b506102ae6103db366004613cf6565b611070565b3480156103eb575f80fd5b506102ae6103fa366004613d39565b6110ac565b34801561040a575f80fd5b50610461610419366004613d54565b604080518082019091525f8082526020820152505f9081526020818152604091829020825180840190935280546001600160a01b039081168452600190910154169082015290565b6040805182516001600160a01b039081168252602093840151169281019290925201610227565b348015610493575f80fd5b5061024f6104a2366004613d6b565b6110de565b3480156104b2575f80fd5b5061024f6104c1366004613923565b6110eb565b3480156104d1575f80fd5b506104da61118b565b6040516102279796959493929190613db3565b3480156104f8575f80fd5b5061024f610507366004613e4a565b6111f3565b348015610517575f80fd5b5061024f610526366004613e98565b61124b565b348015610536575f80fd5b5061024f610545366004613ef7565b6112fa565b348015610555575f80fd5b5061024f610564366004613f3a565b611305565b348015610574575f80fd5b506102ae610583366004613f64565b611310565b348015610593575f80fd5b506105a76105a2366004613d54565b61148e565b6040516102279190613f7f565b3480156105bf575f80fd5b506102ae6105ce366004613f64565b60056020525f908152604090205481565b3480156105ea575f80fd5b5061024f6105f9366004613fbd565b611584565b348015610609575f80fd5b5061061d610618366004613f64565b611590565b604051610227919061401b565b348015610635575f80fd5b5061024f610644366004613f64565b6115ef565b348015610654575f80fd5b50610668610663366004613beb565b6115fa565b604051610227919061402d565b348015610680575f80fd5b5061069461068f366004613f64565b611693565b604051610227919061403c565b3480156106ac575f80fd5b506102ae6106bb366004613cf6565b6117e1565b3480156106cb575f80fd5b5061024f6106da36600461407c565b611815565b3480156106ea575f80fd5b506102136106f936600461409e565b611a82565b61021361070c3660046140d8565b611a8e565b5f87815260208190526040812060018101546001600160a01b03166107515760405163f184406b60e01b8152600481018a90526024015b60405180910390fd5b61075c88888c611ba0565b91505f61076c83338c8a8a611c70565b905061077b8184848888611dea565b505098975050505050505050565b6001600160a01b0385165f908152600560205260408120805482906107ad90614178565b918290555090505f6107c86107c3878785611e9b565b6120b5565b90505f61080b888387878080601f0160208091040260200160405190810160405280939291908181526020018383808284375f920191909152506121cb92505050565b90508061082b57604051638baa579f60e01b815260040160405180910390fd5b610837888a89896122c8565b505050505050505050565b8180158061084e575081155b1561086c576040516305a74e6160e01b815260040160405180910390fd5b8181101561088d576040516339093e6560e21b815260040160405180910390fd5b5f805b82811015610935575f8686838181106108ab576108ab614190565b90506020020160208101906108c09190613f64565b9050826001600160a01b0316816001600160a01b0316116108f45760405163cd0ecff160e01b815260040160405180910390fd5b80925061090b5f6109058a846123e2565b9061240b565b1561091c57610919856141a4565b94505b845f0361092c575050505061094f565b50600101610890565b506040516339093e6560e21b815260040160405180910390fd5b50505050565b806001600160a01b03811615806109d657506040516301ffc9a760e01b81526314f0f87d60e21b60048201526001600160a01b038216906301ffc9a790602401602060405180830381865afa1580156109b0573d5f803e3d5ffd5b505050506040513d601f19601f820116820180604052508101906109d491906141b9565b155b156109ff5760405163f9492e7560e01b81526001600160a01b0382166004820152602401610748565b5f8381526020819052604090206001015483906001600160a01b03163314610a3a57604051634ca8886760e01b815260040160405180910390fd5b5f8481526020819052604080822080546001600160a01b0319166001600160a01b03871690811782559151909287917f335721b01866dc23fbee8b6b2c7b1e14d6f05c28cd35a2c934239f94095602a09190a35050505050565b5f816001600160a01b03811615801590610b1857506040516301ffc9a760e01b815263b2275fa960e01b60048201526001600160a01b038216906301ffc9a790602401602060405180830381865afa158015610af2573d5f803e3d5ffd5b505050506040513d601f19601f82011682018060405250810190610b1691906141b9565b155b15610b4157604051630f09140760e01b81526001600160a01b0382166004820152602401610748565b5f6040518060600160405280610b544290565b65ffffffffffff168152602001856001600160a01b0316815260200187878080601f0160208091040260200160405190810160405280939291908181526020018383808284375f9201919091525050509152509050610bb2816124ae565b5f8181526002602052604090205490935065ffffffffffff1615610bec57604051635988c65560e11b815260048101849052602401610748565b5f8381526002602090815260409182902083518154928501516001600160a01b0316600160301b026001600160d01b031990931665ffffffffffff90911617919091178155908201518291906001820190610c479082614262565b505060405133915084907fd16733fb8c2a502f4e1d1d63970cbab355e37ff6d6d12a215b7d0197ea5535f4905f90a350509392505050565b6001600160a01b0384165f90815260056020526040812080548290610ca390614178565b918290555090505f610cb86107c386846124e9565b90505f610cfb878387878080601f0160208091040260200160405190810160405280939291908181526020018383808284375f920191909152506121cb92505050565b905080610d1b57604051638baa579f60e01b815260040160405180910390fd5b610d2687898861262a565b5050505050505050565b606081806001600160401b03811115610d4b57610d4b6141d8565b604051908082528060200260200182016040528015610d8457816020015b610d716136c8565b815260200190600190039081610d695790505b5091505f5b81811015610e6857610dc186868684818110610da757610da7614190565b9050602002016020810190610dbc9190613f64565b6123e2565b6040805161010081018252825465ffffffffffff8082168352600160301b820481166020840152600160601b82041692820192909252600160901b90910463ffffffff16606082015260018201546001600160a01b0390811660808301526002830154811660a083015260038301541660c082015260049091015460e08201528351849083908110610e5557610e55614190565b6020908102919091010152600101610d89565b50509392505050565b81801580610e7d575081155b15610e9b576040516305a74e6160e01b815260040160405180910390fd5b81811015610ebc576040516339093e6560e21b815260040160405180910390fd5b5f805b82811015610935575f868683818110610eda57610eda614190565b9050602002016020810190610eef9190613f64565b9050826001600160a01b0316816001600160a01b031611610f235760405163cd0ecff160e01b815260040160405180910390fd5b809250610f34886109058b846123e2565b15610f4557610f42856141a4565b94505b845f03610f555750505050610f5e565b50600101610ebf565b5050505050565b610f7033838361266c565b5050565b610f7082825f612761565b6001600160a01b0385165f90815260056020526040812080548290610fa390614178565b918290555090505f610fb96107c3878785612913565b90505f610ffc888387878080601f0160208091040260200160405190810160405280939291908181526020018383808284375f920191909152506121cb92505050565b90508061101c57604051638baa579f60e01b815260040160405180910390fd5b610d2688888861266c565b611032838383612761565b505050565b6001600160a01b0381165f90815260056020526040812054611069906107c39061106290600161431d565b85906124e9565b9392505050565b6001600160a01b0381165f908152600560205260408120546110a4906107c39061109b90600161431d565b86908690612913565b949350505050565b6001600160a01b0381165f90815260056020526040812054611069906107c3906110d790600161431d565b8590612a17565b6110e83382612a8a565b50565b5f8281526020819052604090206001015482906001600160a01b0316331461112657604051634ca8886760e01b815260040160405180910390fd5b5f838152602081815260409182902060010180546001600160a01b0319166001600160a01b038616908117909155915191825284917f7a2c54badf601a71ed23c3ec8c070bac418dfd4fb160e0351861983746662d77910160405180910390a2505050565b600f60f81b6060805f8080836111e160408051808201825260128152715268696e6573746f6e65526567697374727960701b60208083019190915282518084019093526004835263076312e360e41b9083015291565b97989097965046955030945091925090565b5f86815260208190526040902060018101546001600160a01b031661122e5760405163f184406b60e01b815260048101889052602401610748565b5f61123c875f8a8989611c70565b9050610d268188848787611dea565b6001600160a01b0384165f9081526005602052604081208054829061126f90614178565b918290555090505f6112846107c38684612a17565b90505f6112c7878387878080601f0160208091040260200160405190810160405280939291908181526020018383808284375f920191909152506121cb92505050565b9050806112e757604051638baa579f60e01b815260040160405180910390fd5b6112f18787612a8a565b50505050505050565b610f7033838361262a565b610f70338383612761565b5f816001600160a01b038116158061139257506040516301ffc9a760e01b81526314f0f87d60e21b60048201526001600160a01b038216906301ffc9a790602401602060405180830381865afa15801561136c573d5f803e3d5ffd5b505050506040513d601f19601f8201168201806040525081019061139091906141b9565b155b156113bb5760405163f9492e7560e01b81526001600160a01b0382166004820152602401610748565b604080518082019091526001600160a01b03841681523360208201526113e081612ab3565b5f818152602081905260409020549093506001600160a01b03161561141857604051630f5f2ba160e21b815260040160405180910390fd5b5f83815260208181526040808320845181546001600160a01b03199081166001600160a01b03928316178355938601516001909201805490941691811691909117909255519086169185917f335721b01866dc23fbee8b6b2c7b1e14d6f05c28cd35a2c934239f94095602a09190a35050919050565b60408051606080820183525f8083526020830152918101919091525f828152600260209081526040918290208251606081018452815465ffffffffffff81168252600160301b90046001600160a01b03169281019290925260018101805492939192918401916114fd906141ec565b80601f0160208091040260200160405190810160405280929190818152602001828054611529906141ec565b80156115745780601f1061154b57610100808354040283529160200191611574565b820191905f5260205f20905b81548152906001019060200180831161155757829003601f168201915b5050505050815250509050919050565b611032338484846122c8565b60408051606080820183525f80835260208084018290528385018390526001600160a01b03868116835260018083529286902086519485018752805485529283015416908301526002810180549394929391928401916114fd906141ec565b6110e833825f612761565b6116026136c8565b61160c83836123e2565b6040805161010081018252825465ffffffffffff8082168352600160301b820481166020840152600160601b82041692820192909252600160901b90910463ffffffff16606082015260018201546001600160a01b0390811660808301526002830154811660a083015260038301541660c082015260049091015460e08201529392505050565b6001600160a01b038082165f9081526003602052604081208054606093919260ff82169262010000909204909116908290036116d157505050919050565b816001600160401b038111156116e9576116e96141d8565b604051908082528060200260200182016040528015611712578160200160208202803683370190505b50935080845f8151811061172857611728614190565b6001600160a01b039092166020928302919091019091015260015b828110156117d857836001015f8660018461175e9190614330565b8151811061176e5761176e614190565b6020908102919091018101516001600160a01b0390811683528282019390935260409182015f9081208a85168252909152205486519116908690839081106117b8576117b8614190565b6001600160a01b0390921660209283029190910190910152600101611743565b50505050919050565b6001600160a01b0381165f908152600560205260408120546110a4906107c39061180c90600161431d565b86908690611e9b565b604080516020808402828101820190935283825283926118519291869185918291908501908490808284375f92019190915250612ae492505050565b61186e5760405163cd0ecff160e01b815260040160405180910390fd5b80158061187b575060ff81115b156118995760405163cd0ecff160e01b815260040160405180910390fd5b8181146118b95760405163cd0ecff160e01b815260040160405180910390fd5b5f838382816118ca576118ca614190565b90506020020160208101906118df9190613f64565b6001600160a01b0316036119065760405163cd0ecff160e01b815260040160405180910390fd5b335f90815260036020526040902060ff85168210156119385760405163aabd5a0960e01b815260040160405180910390fd5b805460ff8681166101000261ffff199092169084161717815583835f8161196157611961614190565b90506020020160208101906119769190613f64565b81546001600160a01b0391909116620100000262010000600160b01b0319909116178155816119a4816141a4565b9250505f5b82811015611a50575f8585838181106119c4576119c4614190565b90506020020160208101906119d99190613f64565b905085856119e884600161431d565b8181106119f7576119f7614190565b9050602002016020810190611a0c9190613f64565b6001600160a01b039182165f90815260018581016020908152604080842033855290915290912080546001600160a01b0319169290931691909117909155016119a9565b5060405133907ff689fb4afceb60ac48a5ca8113a5a57cb15e51d317f0ec57e07340192d9fb459905f90a25050505050565b5f6110a4838386612aee565b5f83815260208190526040812060018101546001600160a01b0316611ac95760405163f184406b60e01b815260048101869052602401610748565b306001600160a01b038b1603611afd576040516301b3a38360e21b81526001600160a01b038b166004820152602401610748565b604051630d84daa960e31b81526001600160a01b037f00000000000000000000000000000000000000000000000000000000000000001690636c26d548903490611b4f908e908e908e9060040161436b565b60206040518083038185885af1158015611b6b573d5f803e3d5ffd5b50505050506040513d601f19601f82011682018060405250810190611b909190614398565b91505f61076c835f888b8b611c70565b5f81606081901c3314801590611bbf57506001600160601b0319811615155b15611bdd576040516381e69d9b60e01b815260040160405180910390fd5b5f85858080601f0160208091040260200160405190810160405280939291908181526020018383808284375f920182905250939450611c23925089915088905087612aee565b905081602001825186818334f595505050806001600160a01b0316846001600160a01b031614611c665760405163e6c4247b60e01b815260040160405180910390fd5b5050509392505050565b60408051606080820183525f8083526020830152918101919091526001600160a01b0386165f90815260016020526040812054611cac91141590565b15611cd5576040516345ed80e960e01b81526001600160a01b0387166004820152602401610748565b6001600160a01b0386163b611cfd57604051637483e90760e01b815260040160405180910390fd5b6040518060600160405280858152602001866001600160a01b0316815260200184848080601f0160208091040260200160405190810160405280939291908181526020018383808284375f9201829052509390945250506001600160a01b03898116825260016020818152604093849020865181559086015191810180546001600160a01b03191692909316919091179091559083015192935083929091506002820190611dab9082614262565b50506040516001600160a01b03881691507fbc854169953f463b8509327459b9a9785beb45f6cdafdad8e75b9a33f4016768905f90a295945050505050565b82546001600160a01b03168015801590611e755750604051633da3df8760e21b81526001600160a01b0382169063f68f7e1c90611e3390339089908b90899089906004016143b3565b6020604051808303815f875af1158015611e4f573d5f803e3d5ffd5b505050506040513d601f19601f82011682018060405250810190611e7391906141b9565b155b15611e9357604051633b0cfdad60e01b815260040160405180910390fd5b505050505050565b5f606083825b8181101561204e57827fe78ff87b9693fc54b8a43c3b84702ae7bfbb7fc6235105790033913428381e1f888884818110611edd57611edd614190565b9050602002810190611eef91906143fd565b611efd906020810190613f64565b898985818110611f0f57611f0f614190565b9050602002810190611f2191906143fd565b611f3290604081019060200161441b565b8a8a86818110611f4457611f44614190565b9050602002810190611f5691906143fd565b611f64906040810190614440565b604051611f72929190614482565b60405180910390208b8b87818110611f8c57611f8c614190565b9050602002810190611f9e91906143fd565b611fac906060810190614491565b604051602001611fbd9291906144d6565b60408051601f198184030181528282528051602091820120908301969096526001600160a01b039094169381019390935265ffffffffffff9091166060830152608082015260a081019190915260c0016040516020818303038152906040528051906020012060405160200161203492919061451b565b60408051601f198184030181529190529250600101611ea1565b508151602080840191909120604080517f432f54a02ff5e7b0998295a12eea6e09f826e00e15ebb49cdb5dd6914e7eadf793810193909352820152606081018590526080015b60405160208183030381529060405280519060200120925050509392505050565b7f00000000000000000000000000000000000000000000000000000000000000007f000000000000000000000000000000000000000000000000000000000000000030147f00000000000000000000000000000000000000000000000000000000000000004614166121a85750604080517f8b73c3c69bb8fe3d512ecc4cf759cc79239f7b179b0ffacaa9a75d522b39400f81527f000000000000000000000000000000000000000000000000000000000000000060208201527f00000000000000000000000000000000000000000000000000000000000000009181019190915246606082015230608082015260a090205b6719010000000000005f5280601a5281603a52604260182090505f603a52919050565b6001600160a01b03909216915f831561106957604051835f5260208301516040526040835103612237576040830151601b8160ff1c016020528060011b60011c606052506020600160805f60015afa805186183d151761223557505f606052604052506001611069565b505b604183510361227a5760608301515f1a60205260408301516060526020600160805f60015afa805186183d151761227857505f606052604052506001611069565b505b5f60605280604052631626ba7e60e01b808252846004830152602482016040815284516020018060448501828860045afa505060208160443d01858a5afa9051909114169150509392505050565b805f816001600160401b038111156122e2576122e26141d8565b60405190808252806020026020018201604052801561231b57816020015b6123086136c8565b8152602001906001900390816123005790505b5090505f805b838110156123b1575f612358888a89898681811061234157612341614190565b905060200281019061235391906143fd565b612b7a565b85848151811061236a5761236a614190565b602002602001018193508290525050815f03612388578092506123a8565b8281146123a857604051631ac80ea760e01b815260040160405180910390fd5b50600101612321565b505f8681526002602052604090206123ca908390612f7e565b5f8181526020819052604090206112f190839061304d565b6001600160a01b039182165f908152600460209081526040808320939094168252919091522090565b81545f9063ffffffff81811691603081901c821691606082901c81169160901c168361243d575f9450505050506124a8565b821580159061244b57508242115b1561245c575f9450505050506124a8565b811561246e575f9450505050506124a8565b851515801561248e575061248c63ffffffff8083169088906130ef16565b155b1561249f575f9450505050506124a8565b60019450505050505b92915050565b5f33826040015183602001516040516020016124cc93929190614533565b604051602081830303815290604052805190602001209050919050565b5f7fe6fb0252edfa0719f65bc4b7ff11df181a55bbef752d6bacaff6f4a369160b757fe78ff87b9693fc54b8a43c3b84702ae7bfbb7fc6235105790033913428381e1f6125396020860186613f64565b612549604087016020880161441b565b6125566040880188614440565b604051612564929190614482565b60405190819003902061257a6060890189614491565b60405160200161258b9291906144d6565b60408051601f198184030181528282528051602091820120908301969096526001600160a01b039094169381019390935265ffffffffffff9091166060830152608082015260a081019190915260c0015b60408051601f19818403018152828252805160209182012090830193909352810191909152606081018390526080015b60405160208183030381529060405280519060200120905092915050565b5f80612637848685612b7a565b5f868152600260205260409020919350915061265490839061310d565b5f818152602081905260409020610f5e90839061317c565b805f816001600160401b03811115612686576126866141d8565b6040519080825280602002602001820160405280156126bf57816020015b6126ac6136c8565b8152602001906001900390816126a45790505b5090505f805b83811015612748575f6126ef888888858181106126e4576126e4614190565b90506020020161321d565b85848151811061270157612701614190565b602002602001018193508290525050815f0361271f5780925061273f565b82811461273f57604051631ac80ea760e01b815260040160405180910390fd5b506001016126c5565b505f8181526020819052604090206112f1908390613410565b6001600160a01b038084165f9081526003602052604090208054909160ff80831692610100810490911691620100009091041680158061279f575081155b156127bd576040516305a74e6160e01b815260040160405180910390fd5b8160010361284f575f6127d087836123e2565b90506127dc818761240b565b156127eb575050505050505050565b5f5b84811015610935576001600160a01b039283165f90815260018701602090815260408083208c871684529091529020549092169161282b88846123e2565b9150612837828861240b565b1561284757505050505050505050565b6001016127ed565b5f61285a87836123e2565b9050612866818761240b565b156128795782612875816141a4565b9350505b60015b848110156128f3576001600160a01b039283165f90815260018701602090815260408083208c87168452909152902054909216916128ba88846123e2565b91506128c6828861240b565b156128d957836128d5816141a4565b9450505b835f036128eb57505050505050505050565b60010161287c565b508215610d26576040516339093e6560e21b815260040160405180910390fd5b5f606083825b818110156129cd57827fe772c71320d83e91a3076e1414875f1affb9dbb84c39717315b34b38b9b4ef8e88888481811061295557612955614190565b612969926020918202019081019150613f64565b60405160200161298c9291909182526001600160a01b0316602082015260400190565b604051602081830303815290604052805190602001206040516020016129b392919061451b565b60408051601f198184030181529190529250600101612919565b508151602080840191909120604080517f7d1efebd1edb795fc2fef1b96025f39b311dd4c4481a7f726342969d70b423c89381019390935282015260608101859052608001612094565b5f7f0c087e39c84c32f053f4f3e0086d64914296a605bd371cfe0bdca1d506aed4707fe772c71320d83e91a3076e1414875f1affb9dbb84c39717315b34b38b9b4ef8e612a676020860186613f64565b6040516020016125dc9291909182526001600160a01b0316602082015260400190565b5f80612a96848461321d565b5f8181526020819052604090209193509150610f5e9083906134f5565b80516040516001600160601b031933606090811b821660208401529290921b90911660348201525f906048016124cc565b5f6124a88261353d565b5f30828585604051602001612b04929190614482565b60405160208183030381529060405280519060200120604051602001612b5a939291906001600160f81b0319815260609390931b6001600160601b03191660018401526015830191909152603582015260550190565b60408051601f198184030181529190528051602090910120949350505050565b612b826136c8565b5f8481526002602052604081205465ffffffffffff16612bb557604051635f9bd90760e11b815260040160405180910390fd5b425f612bc7604086016020870161441b565b65ffffffffffff1614158015612bfc575065ffffffffffff8116612bf1604086016020870161441b565b65ffffffffffff1611155b15612c1a576040516308e8b93760e01b815260040160405180910390fd5b5f612c286020860186613f64565b90505f612c3582886123e2565b805490915065ffffffffffff1615801590612c5e57508054600160601b900465ffffffffffff16155b15612c7c576040516335d9080560e01b815260040160405180910390fd5b6001600160a01b0382165f90815260016020526040902054935083612cbf57604051634eb2dcd760e01b81526001600160a01b0383166004820152602401610748565b5f612cdd612cd66001600160a01b038a1685613576565b88906135ad565b90506040518061010001604052808565ffffffffffff168152602001886020016020810190612d0c919061441b565b65ffffffffffff1681525f6020820152604001612d65612d2f60608b018b614491565b808060200260200160405190810160405280939291908181526020018383602002808284375f920191909152506135f992505050565b63ffffffff168152602001846001600160a01b03168152602001896001600160a01b03168152602001826001600160a01b031681526020018a81525095508560045f856001600160a01b03166001600160a01b031681526020019081526020015f205f8a6001600160a01b03166001600160a01b031681526020019081526020015f205f820151815f015f6101000a81548165ffffffffffff021916908365ffffffffffff1602179055506020820151815f0160066101000a81548165ffffffffffff021916908365ffffffffffff1602179055506040820151815f01600c6101000a81548165ffffffffffff021916908365ffffffffffff1602179055506060820151815f0160126101000a81548163ffffffff021916908363ffffffff1602179055506080820151816001015f6101000a8154816001600160a01b0302191690836001600160a01b0316021790555060a0820151816002015f6101000a8154816001600160a01b0302191690836001600160a01b0316021790555060c0820151816003015f6101000a8154816001600160a01b0302191690836001600160a01b0316021790555060e08201518160040155905050806001600160a01b0316886001600160a01b0316846001600160a01b03167ff68f1df3d74509783e9300e8637b046836c091fd39cdcd33b14b0ffdf6940d628c604051612f6a91815260200190565b60405180910390a450505050935093915050565b805465ffffffffffff16612fa557604051635f9bd90760e11b815260040160405180910390fd5b8054600160301b90046001600160a01b0316801580159061302f57506040516365b7641360e11b81526001600160a01b0382169063cb6ec82690612fed908690600401613b01565b6020604051808303815f875af1158015613009573d5f803e3d5ffd5b505050506040513d601f19601f8201168201806040525081019061302d91906141b9565b155b1561103257604051635e1d867960e01b815260040160405180910390fd5b80546001600160a01b03168061306257505050565b6040516367b14e7760e11b81526001600160a01b0382169063cf629cee9061308e908690600401613b01565b6020604051808303815f875af11580156130aa573d5f803e3d5ffd5b505050506040513d601f19601f820116820180604052508101906130ce91906141b9565b15155f0361103257604051635b0ae41f60e01b815260040160405180910390fd5b5f6130fb82600261464b565b831663ffffffff161515905092915050565b805465ffffffffffff1661313457604051635f9bd90760e11b815260040160405180910390fd5b8054600160301b90046001600160a01b0316801580159061302f5750604051637949978f60e01b81526001600160a01b03821690637949978f90612fed90869060040161402d565b80546001600160a01b031680158015906131ff57506040516334c85d0760e01b81526001600160a01b038216906334c85d07906131bd90869060040161402d565b6020604051808303815f875af11580156131d9573d5f803e3d5ffd5b505050506040513d601f19601f820116820180604052508101906131fd91906141b9565b155b1561103257604051635b0ae41f60e01b815260040160405180910390fd5b6132256136c8565b5f806004816132376020870187613f64565b6001600160a01b03908116825260208083019390935260409182015f90812089831682528452828120835161010081018552815465ffffffffffff8082168352600160301b8204811683890152600160601b82041695820195909552600160901b90940463ffffffff166060850152600180820154841660808601526002820154841660a0860152600382015490931660c0850152600481015460e0850152929650919350916132e990870187613f64565b6001600160a01b03908116825260208201929092526040015f205460c08501519093501661332a5760405163120a2e7760e01b815260040160405180910390fd5b846001600160a01b03168360a001516001600160a01b03161461336057604051634ca8886760e01b815260040160405180910390fd5b604083015165ffffffffffff161561338b5760405163905e710760e01b815260040160405180910390fd5b805465ffffffffffff60601b1916600160601b65ffffffffffff4216021781556001600160a01b0385166133c26020860186613f64565b6001600160a01b03167feee7de70b290c411a060d8bb9b1cba152a40d74147fef0974d7c2b25ac9b718a8560e0015160405161340091815260200190565b60405180910390a3509250929050565b80545f906001600160a01b03168061342c5760019150506124a8565b604051636ac403ff60e11b81526001600160a01b0382169063d58807fe90613458908790600401613b01565b6020604051808303815f875af1925050508015613492575060408051601f3d908101601f1916820190925261348f918101906141b9565b60015b6134db576040516001600160a01b03821681527fbab8c8262d5baeb21d73c5944504fb6c26d6eb88d29af8653bd3382ad8fe56a99060200160405180910390a15f9150506124a8565b80156134ec576001925050506124a8565b505b5092915050565b80545f906001600160a01b0316806135115760019150506124a8565b604051638b6e59ff60e01b81526001600160a01b03821690638b6e59ff9061345890879060040161402d565b805160019060021161357157815160051b82016020830192505b82516020909301805190931091508083188202613557575b505b919050565b6040516001600160601b0319606084811b8216602084015283901b1660348201524260488201524660688201525f9060880161260c565b5f6110696135be6040850185614440565b8080601f0160208091040260200160405190810160405280939291908181526020018383808284375f92019190915250869250613680915050565b80515f908180805b838110156136765785818151811061361b5761361b614190565b60200260200101519150601f821180613639575061363983836130ef565b1561365757604051631092ef5760e11b815260040160405180910390fd5b61366282600261464b565b61366c9084614656565b9250600101613601565b5090949350505050565b5f8251600181018060401b6bfd61000080600a3d393df3001761ffff821186015283600a8201601587015ff5925050816136c15763301164255f526004601cfd5b9092525090565b60408051610100810182525f80825260208201819052918101829052606081018290526080810182905260a0810182905260c0810182905260e081019190915290565b5f8083601f84011261371b575f80fd5b5081356001600160401b03811115613731575f80fd5b602083019150836020828501011115613748575f80fd5b9250929050565b5f805f805f805f8060a0898b031215613766575f80fd5b883597506020890135965060408901356001600160401b038082111561378a575f80fd5b6137968c838d0161370b565b909850965060608b01359150808211156137ae575f80fd5b6137ba8c838d0161370b565b909650945060808b01359150808211156137d2575f80fd5b506137df8b828c0161370b565b999c989b5096995094979396929594505050565b6001600160a01b03811681146110e8575f80fd5b5f8083601f840112613817575f80fd5b5081356001600160401b0381111561382d575f80fd5b6020830191508360208260051b8501011115613748575f80fd5b5f805f805f806080878903121561385c575f80fd5b86359550602087013561386e816137f3565b945060408701356001600160401b0380821115613889575f80fd5b6138958a838b01613807565b909650945060608901359150808211156138ad575f80fd5b506138ba89828a0161370b565b979a9699509497509295939492505050565b5f805f80606085870312156138df575f80fd5b84356138ea816137f3565b935060208501356001600160401b03811115613904575f80fd5b61391087828801613807565b9598909750949560400135949350505050565b5f8060408385031215613934575f80fd5b823591506020830135613946816137f3565b809150509250929050565b5f805f60408486031215613963575f80fd5b83356001600160401b03811115613978575f80fd5b6139848682870161370b565b9094509250506020840135613998816137f3565b809150509250925092565b5f6080828403121561356f575f80fd5b5f805f805f608086880312156139c7575f80fd5b8535945060208601356139d9816137f3565b935060408601356001600160401b03808211156139f4575f80fd5b613a0089838a016139a3565b94506060880135915080821115613a15575f80fd5b50613a228882890161370b565b969995985093965092949392505050565b5f805f60408486031215613a45575f80fd5b8335613a50816137f3565b925060208401356001600160401b03811115613a6a575f80fd5b613a7686828701613807565b9497909650939450505050565b65ffffffffffff8082511683528060208301511660208401528060408301511660408401525063ffffffff6060820151166060830152608081015160018060a01b0380821660808501528060a08401511660a0850152505060c0810151613af560c08401826001600160a01b03169052565b5060e090810151910152565b602080825282518282018190525f9190848201906040850190845b81811015613b4357613b2f838551613a83565b928401926101009290920191600101613b1c565b50909695505050505050565b5f805f805f60808688031215613b63575f80fd5b8535613b6e816137f3565b94506020860135935060408601356001600160401b03811115613b8f575f80fd5b613b9b88828901613807565b96999598509660600135949350505050565b5f8060208385031215613bbe575f80fd5b82356001600160401b03811115613bd3575f80fd5b613bdf85828601613807565b90969095509350505050565b5f8060408385031215613bfc575f80fd5b8235613c07816137f3565b91506020830135613946816137f3565b5f805f805f60608688031215613c2b575f80fd5b8535613c36816137f3565b945060208601356001600160401b0380821115613c51575f80fd5b613c5d89838a01613807565b90965094506040880135915080821115613a15575f80fd5b5f805f60608486031215613c87575f80fd5b8335613c92816137f3565b92506020840135613ca2816137f3565b929592945050506040919091013590565b5f8060408385031215613cc4575f80fd5b82356001600160401b03811115613cd9575f80fd5b613ce5858286016139a3565b9250506020830135613946816137f3565b5f805f60408486031215613d08575f80fd5b83356001600160401b03811115613d1d575f80fd5b61398486828701613807565b5f6020828403121561356f575f80fd5b5f8060408385031215613d4a575f80fd5b613c078484613d29565b5f60208284031215613d64575f80fd5b5035919050565b5f60208284031215613d7b575f80fd5b6110698383613d29565b5f81518084528060208401602086015e5f602082860101526020601f19601f83011685010191505092915050565b60ff60f81b881681525f602060e06020840152613dd360e084018a613d85565b8381036040850152613de5818a613d85565b606085018990526001600160a01b038816608086015260a0850187905284810360c0860152855180825260208088019350909101905f5b81811015613e3857835183529284019291840191600101613e1c565b50909c9b505050505050505050505050565b5f805f805f8060808789031215613e5f575f80fd5b863595506020870135613e71816137f3565b945060408701356001600160401b0380821115613e8c575f80fd5b6138958a838b0161370b565b5f805f8060608587031215613eab575f80fd5b8435613eb6816137f3565b9350613ec58660208701613d29565b925060408501356001600160401b03811115613edf575f80fd5b613eeb8782880161370b565b95989497509550505050565b5f8060408385031215613f08575f80fd5b8235915060208301356001600160401b03811115613f24575f80fd5b613f30858286016139a3565b9150509250929050565b5f8060408385031215613f4b575f80fd5b8235613f56816137f3565b946020939093013593505050565b5f60208284031215613f74575f80fd5b8135611069816137f3565b6020815265ffffffffffff825116602082015260018060a01b0360208301511660408201525f60408301516060808401526110a46080840182613d85565b5f805f60408486031215613fcf575f80fd5b8335925060208401356001600160401b03811115613a6a575f80fd5b8051825260018060a01b0360208201511660208301525f6040820151606060408501526110a46060850182613d85565b602081525f6110696020830184613feb565b61010081016124a88284613a83565b602080825282518282018190525f9190848201906040850190845b81811015613b435783516001600160a01b031683529284019291840191600101614057565b5f805f6040848603121561408e575f80fd5b833560ff81168114613a50575f80fd5b5f805f604084860312156140b0575f80fd5b8335925060208401356001600160401b038111156140cc575f80fd5b613a768682870161370b565b5f805f805f805f8060a0898b0312156140ef575f80fd5b88356140fa816137f3565b975060208901356001600160401b0380821115614115575f80fd5b6141218c838d0161370b565b909950975060408b0135915080821115614139575f80fd5b6141458c838d0161370b565b909750955060608b0135945060808b01359150808211156137d2575f80fd5b634e487b7160e01b5f52601160045260245ffd5b5f6001820161418957614189614164565b5060010190565b634e487b7160e01b5f52603260045260245ffd5b5f816141b2576141b2614164565b505f190190565b5f602082840312156141c9575f80fd5b81518015158114611069575f80fd5b634e487b7160e01b5f52604160045260245ffd5b600181811c9082168061420057607f821691505b60208210810361356f57634e487b7160e01b5f52602260045260245ffd5b601f82111561103257805f5260205f20601f840160051c810160208510156142435750805b601f840160051c820191505b81811015610f5e575f815560010161424f565b81516001600160401b0381111561427b5761427b6141d8565b61428f8161428984546141ec565b8461421e565b602080601f8311600181146142c2575f84156142ab5750858301515b5f19600386901b1c1916600185901b178555611e93565b5f85815260208120601f198616915b828110156142f0578886015182559484019460019091019084016142d1565b508582101561430d57878501515f19600388901b60f8161c191681555b5050505050600190811b01905550565b808201808211156124a8576124a8614164565b818103818111156124a8576124a8614164565b81835281816020850137505f828201602090810191909152601f909101601f19169091010190565b6001600160a01b03841681526040602082018190525f9061438f9083018486614343565b95945050505050565b5f602082840312156143a8575f80fd5b8151611069816137f3565b6001600160a01b038681168252851660208201526080604082018190525f906143de90830186613feb565b82810360608401526143f1818587614343565b98975050505050505050565b5f8235607e19833603018112614411575f80fd5b9190910192915050565b5f6020828403121561442b575f80fd5b813565ffffffffffff81168114611069575f80fd5b5f808335601e19843603018112614455575f80fd5b8301803591506001600160401b0382111561446e575f80fd5b602001915036819003821315613748575f80fd5b818382375f9101908152919050565b5f808335601e198436030181126144a6575f80fd5b8301803591506001600160401b038211156144bf575f80fd5b6020019150600581901b3603821315613748575f80fd5b5f8184825b858110156144f95781358352602092830192909101906001016144db565b509095945050505050565b5f81518060208401855e5f93019283525090919050565b5f6145268285614504565b9283525050602001919050565b5f6bffffffffffffffffffffffff19808660601b1683526145576014840186614504565b60609490941b168352505060140192915050565b600181815b808511156145a557815f190482111561458b5761458b614164565b8085161561459857918102915b93841c9390800290614570565b509250929050565b5f826145bb575060016124a8565b816145c757505f6124a8565b81600181146145dd57600281146145e757614603565b60019150506124a8565b60ff8411156145f8576145f8614164565b50506001821b6124a8565b5060208310610133831016604e8410600b8410161715614626575081810a6124a8565b614630838361456b565b805f190482111561464357614643614164565b029392505050565b5f61106983836145ad565b63ffffffff8181168382160190808211156134ee576134ee61416456fea2646970667358221220c3de64364b5398962fd4e9c9290e07b740792769058a0078318f82621989a8e164736f6c634300081900336080604052348015600e575f80fd5b506101ac8061001c5f395ff3fe60806040526004361061001d575f3560e01c80636c26d54814610021575b5f80fd5b61003461002f3660046100ad565b610050565b6040516001600160a01b03909116815260200160405180910390f35b5f8060205f84516020860134885af190505f51915080610092576040516301b3a38360e21b81526001600160a01b038516600482015260240160405180910390fd5b5092915050565b634e487b7160e01b5f52604160045260245ffd5b5f80604083850312156100be575f80fd5b82356001600160a01b03811681146100d4575f80fd5b9150602083013567ffffffffffffffff808211156100f0575f80fd5b818501915085601f830112610103575f80fd5b81358181111561011557610115610099565b604051601f8201601f19908116603f0116810190838211818310171561013d5761013d610099565b81604052828152886020848701011115610155575f80fd5b826020860160208301375f602084830101528095505050505050925092905056fea2646970667358221220dc6496aaca3c338331e5992f9c8d3da726d855d79663373dc194fcaf785fe70964736f6c63430008190033","linkReferences":{}},"methodIdentifiers":{"attest(bytes32,(address,uint48,bytes,uint256[]))":"945e3641","attest(bytes32,(address,uint48,bytes,uint256[])[])":"b65d1012","attest(bytes32,address,(address,uint48,bytes,uint256[]),bytes)":"29757d37","attest(bytes32,address,(address,uint48,bytes,uint256[])[],bytes)":"04a1f298","attesterNonce(address)":"b50b706b","calcModuleAddress(bytes32,bytes)":"f095ec1b","check(address)":"c23697a8","check(address,address[],uint256)":"0bb30abc","check(address,uint256)":"96fb7217","check(address,uint256,address[],uint256)":"2ed94467","checkForAccount(address,address)":"4c13560c","checkForAccount(address,address,uint256)":"529562a1","deployModule(bytes32,bytes32,bytes,bytes,bytes)":"03b79c84","deployViaFactory(address,bytes,bytes,bytes32,bytes)":"f190e2b1","eip712Domain()":"84b0196e","findAttestation(address,address)":"d9048624","findAttestations(address,address[])":"2b30c899","findModule(address)":"b6b791a1","findResolver(bytes32)":"71c61a2b","findSchema(bytes32)":"b060cb1e","findTrustedAttesters(address)":"dd0fd278","getDigest((address),address)":"70d2af24","getDigest((address)[],address)":"617734d0","getDigest((address,uint48,bytes,uint256[]),address)":"55f47dde","getDigest((address,uint48,bytes,uint256[])[],address)":"e14f3d32","registerModule(bytes32,address,bytes,bytes)":"88dc678d","registerResolver(address)":"9f3e1b53","registerSchema(string,address)":"1d4d9810","revoke((address))":"77efcab4","revoke((address)[])":"4990a682","revoke(address,(address),bytes)":"8e6ec824","revoke(address,(address)[],bytes)":"4ece78ca","setResolver(bytes32,address)":"1896f70a","transferResolverOwnership(bytes32,address)":"7cb2afd8","trustAttesters(uint8,address[])":"f05c04e1"},"id":60}