{
  "abi": [
    {
      "type": "constructor",
      "inputs": [
        {
          "name": "ret",
          "type": "bool",
          "internalType": "bool"
        }
      ],
      "stateMutability": "nonpayable"
    },
    {
      "type": "function",
      "name": "isValidSignature",
      "inputs": [
        {
          "name": "hash",
          "type": "bytes32",
          "internalType": "bytes32"
        },
        {
          "name": "signature",
          "type": "bytes",
          "internalType": "bytes"
        }
      ],
      "outputs": [
        {
          "name": "",
          "type": "bytes4",
          "internalType": "bytes4"
        }
      ],
      "stateMutability": "view"
    }
  ],
  "bytecode": {
    "object": "0x60a03461006257601f6101b538819003918201601f19168301916001600160401b0383118484101761006657808492602094604052833981010312610062575180151581036100625760805260405161013a908161007b82396080518160d10152f35b5f80fd5b634e487b7160e01b5f52604160045260245ffdfe6080600436101561000e575f80fd5b5f3560e01c631626ba7e14610021575f80fd5b346100b75760403660031901126100b75760243567ffffffffffffffff8082116100b757366023830112156100b7578160040135908082116100bb57601f8201601f19908116603f01168401908111848210176100bb5760405280835236602482840101116100b7575f92816024602094018483013701015260206100a46100cf565b6040516001600160e01b03199091168152f35b5f80fd5b634e487b7160e01b5f52604160045260245ffd5b7f00000000000000000000000000000000000000000000000000000000000000001561010057630b135d3f60e11b90565b5f9056fea2646970667358221220e546ad1a129b59fab18fda3173d544dac25aa344866952f4c46e2c28d8b7503e64736f6c63430008180033",
    "linkReferences": {}
  },
  "methodIdentifiers": {
    "isValidSignature(bytes32,bytes)": "1626ba7e"
  },
  "id": 93
}