{
  "abi": [
    {
      "type": "constructor",
      "inputs": [
        {
          "name": "ret",
          "type": "bool",
          "internalType": "bool"
        }
      ],
      "stateMutability": "nonpayable"
    },
    {
      "type": "function",
      "name": "onAttestCalled",
      "inputs": [],
      "outputs": [
        {
          "name": "",
          "type": "bool",
          "internalType": "bool"
        }
      ],
      "stateMutability": "view"
    },
    {
      "type": "function",
      "name": "onModuleCalled",
      "inputs": [],
      "outputs": [
        {
          "name": "",
          "type": "bool",
          "internalType": "bool"
        }
      ],
      "stateMutability": "view"
    },
    {
      "type": "function",
      "name": "onRevokeCalled",
      "inputs": [],
      "outputs": [
        {
          "name": "",
          "type": "bool",
          "internalType": "bool"
        }
      ],
      "stateMutability": "view"
    },
    {
      "type": "function",
      "name": "reset",
      "inputs": [],
      "outputs": [],
      "stateMutability": "nonpayable"
    },
    {
      "type": "function",
      "name": "resolveAttestation",
      "inputs": [
        {
          "name": "attestation",
          "type": "tuple",
          "internalType": "struct AttestationRecord",
          "components": [
            {
              "name": "time",
              "type": "uint48",
              "internalType": "uint48"
            },
            {
              "name": "expirationTime",
              "type": "uint48",
              "internalType": "uint48"
            },
            {
              "name": "revocationTime",
              "type": "uint48",
              "internalType": "uint48"
            },
            {
              "name": "moduleTypes",
              "type": "uint32",
              "internalType": "PackedModuleTypes"
            },
            {
              "name": "moduleAddress",
              "type": "address",
              "internalType": "address"
            },
            {
              "name": "attester",
              "type": "address",
              "internalType": "address"
            },
            {
              "name": "dataPointer",
              "type": "address",
              "internalType": "AttestationDataRef"
            },
            {
              "name": "schemaUID",
              "type": "bytes32",
              "internalType": "SchemaUID"
            }
          ]
        }
      ],
      "outputs": [
        {
          "name": "",
          "type": "bool",
          "internalType": "bool"
        }
      ],
      "stateMutability": "payable"
    },
    {
      "type": "function",
      "name": "resolveAttestation",
      "inputs": [
        {
          "name": "attestation",
          "type": "tuple[]",
          "internalType": "struct AttestationRecord[]",
          "components": [
            {
              "name": "time",
              "type": "uint48",
              "internalType": "uint48"
            },
            {
              "name": "expirationTime",
              "type": "uint48",
              "internalType": "uint48"
            },
            {
              "name": "revocationTime",
              "type": "uint48",
              "internalType": "uint48"
            },
            {
              "name": "moduleTypes",
              "type": "uint32",
              "internalType": "PackedModuleTypes"
            },
            {
              "name": "moduleAddress",
              "type": "address",
              "internalType": "address"
            },
            {
              "name": "attester",
              "type": "address",
              "internalType": "address"
            },
            {
              "name": "dataPointer",
              "type": "address",
              "internalType": "AttestationDataRef"
            },
            {
              "name": "schemaUID",
              "type": "bytes32",
              "internalType": "SchemaUID"
            }
          ]
        }
      ],
      "outputs": [
        {
          "name": "",
          "type": "bool",
          "internalType": "bool"
        }
      ],
      "stateMutability": "payable"
    },
    {
      "type": "function",
      "name": "resolveModuleRegistration",
      "inputs": [
        {
          "name": "sender",
          "type": "address",
          "internalType": "address"
        },
        {
          "name": "moduleRecord",
          "type": "address",
          "internalType": "address"
        },
        {
          "name": "record",
          "type": "tuple",
          "internalType": "struct ModuleRecord",
          "components": [
            {
              "name": "resolverUID",
              "type": "bytes32",
              "internalType": "ResolverUID"
            },
            {
              "name": "sender",
              "type": "address",
              "internalType": "address"
            },
            {
              "name": "metadata",
              "type": "bytes",
              "internalType": "bytes"
            }
          ]
        },
        {
          "name": "resolverContext",
          "type": "bytes",
          "internalType": "bytes"
        }
      ],
      "outputs": [
        {
          "name": "",
          "type": "bool",
          "internalType": "bool"
        }
      ],
      "stateMutability": "payable"
    },
    {
      "type": "function",
      "name": "resolveRevocation",
      "inputs": [
        {
          "name": "attestation",
          "type": "tuple",
          "internalType": "struct AttestationRecord",
          "components": [
            {
              "name": "time",
              "type": "uint48",
              "internalType": "uint48"
            },
            {
              "name": "expirationTime",
              "type": "uint48",
              "internalType": "uint48"
            },
            {
              "name": "revocationTime",
              "type": "uint48",
              "internalType": "uint48"
            },
            {
              "name": "moduleTypes",
              "type": "uint32",
              "internalType": "PackedModuleTypes"
            },
            {
              "name": "moduleAddress",
              "type": "address",
              "internalType": "address"
            },
            {
              "name": "attester",
              "type": "address",
              "internalType": "address"
            },
            {
              "name": "dataPointer",
              "type": "address",
              "internalType": "AttestationDataRef"
            },
            {
              "name": "schemaUID",
              "type": "bytes32",
              "internalType": "SchemaUID"
            }
          ]
        }
      ],
      "outputs": [
        {
          "name": "",
          "type": "bool",
          "internalType": "bool"
        }
      ],
      "stateMutability": "payable"
    },
    {
      "type": "function",
      "name": "resolveRevocation",
      "inputs": [
        {
          "name": "attestation",
          "type": "tuple[]",
          "internalType": "struct AttestationRecord[]",
          "components": [
            {
              "name": "time",
              "type": "uint48",
              "internalType": "uint48"
            },
            {
              "name": "expirationTime",
              "type": "uint48",
              "internalType": "uint48"
            },
            {
              "name": "revocationTime",
              "type": "uint48",
              "internalType": "uint48"
            },
            {
              "name": "moduleTypes",
              "type": "uint32",
              "internalType": "PackedModuleTypes"
            },
            {
              "name": "moduleAddress",
              "type": "address",
              "internalType": "address"
            },
            {
              "name": "attester",
              "type": "address",
              "internalType": "address"
            },
            {
              "name": "dataPointer",
              "type": "address",
              "internalType": "AttestationDataRef"
            },
            {
              "name": "schemaUID",
              "type": "bytes32",
              "internalType": "SchemaUID"
            }
          ]
        }
      ],
      "outputs": [
        {
          "name": "",
          "type": "bool",
          "internalType": "bool"
        }
      ],
      "stateMutability": "payable"
    },
    {
      "type": "function",
      "name": "supportsInterface",
      "inputs": [
        {
          "name": "interfaceId",
          "type": "bytes4",
          "internalType": "bytes4"
        }
      ],
      "outputs": [
        {
          "name": "",
          "type": "bool",
          "internalType": "bool"
        }
      ],
      "stateMutability": "pure"
    }
  ],
  "bytecode": {
    "object": "0x60a03461007157601f6103d238819003918201601f19168301916001600160401b03831184841017610075578084926020946040528339810103126100715751801515810361007157608052604051610348908161008a8239608051818181610118015281816101ca01526102480152f35b5f80fd5b634e487b7160e01b5f52604160045260245ffdfe60806040908082526004361015610014575f80fd5b5f3560e01c90816301ffc9a71461026c5750806334c85d07146102295780638b6e59ff146102185780639e8ad8b9146101f3578063cf629cee146101ae578063d58807fe146101a5578063d826f88f14610188578063dfde9d5614610163578063e280f3d3146101415763f68f7e1c1461008c575f80fd5b60031960803682011261013d576001600160a01b036004358181160361013d576024359081160361013d5760443567ffffffffffffffff9182821161013d576060913603011261013d576064359080821161013d573660238301121561013d57816004013590811161013d573691016024011161013d576020906201000062ff0000195f5416175f55517f000000000000000000000000000000000000000000000000000000000000000015158152f35b5f80fd5b503461013d575f36600319011261013d5760209060ff5f541690519015158152f35b503461013d575f36600319011261013d5760209060ff5f5460081c1690519015158152f35b3461013d575f36600319011261013d575f805462ffffff19169055005b61013d366102a3565b6020826101ba366102a3565b50505f805460ff191660011790557f00000000000000000000000000000000000000000000000000000000000000005b90519015158152f35b503461013d575f36600319011261013d5760209060ff5f5460101c1690519015158152f35b61010036600319011261013d575f80fd5b5061010036600319011261013d575f805460ff191660011790556020907f00000000000000000000000000000000000000000000000000000000000000006101ea565b3461013d57602036600319011261013d57600435906001600160e01b03198216820361013d5761029d6020926102f0565b15158152f35b90602060031983011261013d5760043567ffffffffffffffff9283821161013d578060238301121561013d57816004013593841161013d5760248460081b8301011161013d576024019190565b5f91906001600160e01b0319166314f0f87d60e21b1461030c57565b6001915056fea26469706673582212209e4179b0194786ae039354860dfc76e6130a8ddf1d6dda058d29bb2fdd045e0364736f6c63430008180033",
    "linkReferences": {}
  },
  "methodIdentifiers": {
    "onAttestCalled()": "e280f3d3",
    "onModuleCalled()": "9e8ad8b9",
    "onRevokeCalled()": "dfde9d56",
    "reset()": "d826f88f",
    "resolveAttestation((uint48,uint48,uint48,uint32,address,address,address,bytes32))": "34c85d07",
    "resolveAttestation((uint48,uint48,uint48,uint32,address,address,address,bytes32)[])": "cf629cee",
    "resolveModuleRegistration(address,address,(bytes32,address,bytes),bytes)": "f68f7e1c",
    "resolveRevocation((uint48,uint48,uint48,uint32,address,address,address,bytes32))": "8b6e59ff",
    "resolveRevocation((uint48,uint48,uint48,uint32,address,address,address,bytes32)[])": "d58807fe",
    "supportsInterface(bytes4)": "01ffc9a7"
  },
  "id": 96
}