{
  "abi": [
    {
      "type": "constructor",
      "inputs": [
        {
          "name": "ret",
          "type": "bool",
          "internalType": "bool"
        }
      ],
      "stateMutability": "nonpayable"
    },
    {
      "type": "function",
      "name": "onAttestCalled",
      "inputs": [],
      "outputs": [
        {
          "name": "",
          "type": "bool",
          "internalType": "bool"
        }
      ],
      "stateMutability": "view"
    },
    {
      "type": "function",
      "name": "onModuleCalled",
      "inputs": [],
      "outputs": [
        {
          "name": "",
          "type": "bool",
          "internalType": "bool"
        }
      ],
      "stateMutability": "view"
    },
    {
      "type": "function",
      "name": "onRevokeCalled",
      "inputs": [],
      "outputs": [
        {
          "name": "",
          "type": "bool",
          "internalType": "bool"
        }
      ],
      "stateMutability": "view"
    },
    {
      "type": "function",
      "name": "reset",
      "inputs": [],
      "outputs": [],
      "stateMutability": "nonpayable"
    },
    {
      "type": "function",
      "name": "resolveAttestation",
      "inputs": [
        {
          "name": "attestation",
          "type": "tuple",
          "internalType": "struct AttestationRecord",
          "components": [
            {
              "name": "time",
              "type": "uint48",
              "internalType": "uint48"
            },
            {
              "name": "expirationTime",
              "type": "uint48",
              "internalType": "uint48"
            },
            {
              "name": "revocationTime",
              "type": "uint48",
              "internalType": "uint48"
            },
            {
              "name": "moduleTypes",
              "type": "uint32",
              "internalType": "PackedModuleTypes"
            },
            {
              "name": "moduleAddress",
              "type": "address",
              "internalType": "address"
            },
            {
              "name": "attester",
              "type": "address",
              "internalType": "address"
            },
            {
              "name": "dataPointer",
              "type": "address",
              "internalType": "AttestationDataRef"
            },
            {
              "name": "schemaUID",
              "type": "bytes32",
              "internalType": "SchemaUID"
            }
          ]
        }
      ],
      "outputs": [
        {
          "name": "",
          "type": "bool",
          "internalType": "bool"
        }
      ],
      "stateMutability": "payable"
    },
    {
      "type": "function",
      "name": "resolveAttestation",
      "inputs": [
        {
          "name": "attestation",
          "type": "tuple[]",
          "internalType": "struct AttestationRecord[]",
          "components": [
            {
              "name": "time",
              "type": "uint48",
              "internalType": "uint48"
            },
            {
              "name": "expirationTime",
              "type": "uint48",
              "internalType": "uint48"
            },
            {
              "name": "revocationTime",
              "type": "uint48",
              "internalType": "uint48"
            },
            {
              "name": "moduleTypes",
              "type": "uint32",
              "internalType": "PackedModuleTypes"
            },
            {
              "name": "moduleAddress",
              "type": "address",
              "internalType": "address"
            },
            {
              "name": "attester",
              "type": "address",
              "internalType": "address"
            },
            {
              "name": "dataPointer",
              "type": "address",
              "internalType": "AttestationDataRef"
            },
            {
              "name": "schemaUID",
              "type": "bytes32",
              "internalType": "SchemaUID"
            }
          ]
        }
      ],
      "outputs": [
        {
          "name": "",
          "type": "bool",
          "internalType": "bool"
        }
      ],
      "stateMutability": "payable"
    },
    {
      "type": "function",
      "name": "resolveModuleRegistration",
      "inputs": [
        {
          "name": "sender",
          "type": "address",
          "internalType": "address"
        },
        {
          "name": "moduleRecord",
          "type": "address",
          "internalType": "address"
        },
        {
          "name": "record",
          "type": "tuple",
          "internalType": "struct ModuleRecord",
          "components": [
            {
              "name": "resolverUID",
              "type": "bytes32",
              "internalType": "ResolverUID"
            },
            {
              "name": "sender",
              "type": "address",
              "internalType": "address"
            },
            {
              "name": "metadata",
              "type": "bytes",
              "internalType": "bytes"
            }
          ]
        },
        {
          "name": "resolverContext",
          "type": "bytes",
          "internalType": "bytes"
        }
      ],
      "outputs": [
        {
          "name": "",
          "type": "bool",
          "internalType": "bool"
        }
      ],
      "stateMutability": "payable"
    },
    {
      "type": "function",
      "name": "resolveRevocation",
      "inputs": [
        {
          "name": "attestation",
          "type": "tuple",
          "internalType": "struct AttestationRecord",
          "components": [
            {
              "name": "time",
              "type": "uint48",
              "internalType": "uint48"
            },
            {
              "name": "expirationTime",
              "type": "uint48",
              "internalType": "uint48"
            },
            {
              "name": "revocationTime",
              "type": "uint48",
              "internalType": "uint48"
            },
            {
              "name": "moduleTypes",
              "type": "uint32",
              "internalType": "PackedModuleTypes"
            },
            {
              "name": "moduleAddress",
              "type": "address",
              "internalType": "address"
            },
            {
              "name": "attester",
              "type": "address",
              "internalType": "address"
            },
            {
              "name": "dataPointer",
              "type": "address",
              "internalType": "AttestationDataRef"
            },
            {
              "name": "schemaUID",
              "type": "bytes32",
              "internalType": "SchemaUID"
            }
          ]
        }
      ],
      "outputs": [
        {
          "name": "",
          "type": "bool",
          "internalType": "bool"
        }
      ],
      "stateMutability": "payable"
    },
    {
      "type": "function",
      "name": "resolveRevocation",
      "inputs": [
        {
          "name": "attestation",
          "type": "tuple[]",
          "internalType": "struct AttestationRecord[]",
          "components": [
            {
              "name": "time",
              "type": "uint48",
              "internalType": "uint48"
            },
            {
              "name": "expirationTime",
              "type": "uint48",
              "internalType": "uint48"
            },
            {
              "name": "revocationTime",
              "type": "uint48",
              "internalType": "uint48"
            },
            {
              "name": "moduleTypes",
              "type": "uint32",
              "internalType": "PackedModuleTypes"
            },
            {
              "name": "moduleAddress",
              "type": "address",
              "internalType": "address"
            },
            {
              "name": "attester",
              "type": "address",
              "internalType": "address"
            },
            {
              "name": "dataPointer",
              "type": "address",
              "internalType": "AttestationDataRef"
            },
            {
              "name": "schemaUID",
              "type": "bytes32",
              "internalType": "SchemaUID"
            }
          ]
        }
      ],
      "outputs": [
        {
          "name": "",
          "type": "bool",
          "internalType": "bool"
        }
      ],
      "stateMutability": "payable"
    },
    {
      "type": "function",
      "name": "supportsInterface",
      "inputs": [
        {
          "name": "interfaceId",
          "type": "bytes4",
          "internalType": "bytes4"
        }
      ],
      "outputs": [
        {
          "name": "",
          "type": "bool",
          "internalType": "bool"
        }
      ],
      "stateMutability": "pure"
    }
  ],
  "bytecode": {
    "object": "0x60a060405234801561000f575f80fd5b5060405161047838038061047883398101604081905261002e91610038565b151560805261005e565b5f60208284031215610048575f80fd5b81518015158114610057575f80fd5b9392505050565b6080516103f56100835f395f818160e30152818161014d01526101f301526103f55ff3fe60806040526004361061008f575f3560e01c8063d58807fe11610057578063d58807fe14610172578063d826f88f14610180578063dfde9d561461019e578063e280f3d3146101bb578063f68f7e1c146101d3575f80fd5b806301ffc9a71461009357806334c85d07146100c65780638b6e59ff146101055780639e8ad8b914610113578063cf629cee14610131575b5f80fd5b34801561009e575f80fd5b506100b26100ad366004610241565b61021b565b604051901515815260200160405180910390f35b6100b26100d436600461026f565b505f805460ff191660011790557f000000000000000000000000000000000000000000000000000000000000000090565b6100b261008f36600461026f565b34801561011e575f80fd5b505f546100b29062010000900460ff1681565b6100b261013f366004610286565b5f805460ff191660011790557f000000000000000000000000000000000000000000000000000000000000000092915050565b6100b261008f366004610286565b34801561018b575f80fd5b5061019c5f805462ffffff19169055565b005b3480156101a9575f80fd5b505f546100b290610100900460ff1681565b3480156101c6575f80fd5b505f546100b29060ff1681565b6100b26101e136600461030b565b5f805462ff00001916620100001790557f000000000000000000000000000000000000000000000000000000000000000095945050505050565b5f632b0f078360e21b6001600160e01b031983160161023c57506001919050565b919050565b5f60208284031215610251575f80fd5b81356001600160e01b031981168114610268575f80fd5b9392505050565b5f6101008284031215610280575f80fd5b50919050565b5f8060208385031215610297575f80fd5b823567ffffffffffffffff808211156102ae575f80fd5b818501915085601f8301126102c1575f80fd5b8135818111156102cf575f80fd5b8660208260081b85010111156102e3575f80fd5b60209290920196919550909350505050565b80356001600160a01b038116811461023c575f80fd5b5f805f805f6080868803121561031f575f80fd5b610328866102f5565b9450610336602087016102f5565b9350604086013567ffffffffffffffff80821115610352575f80fd5b908701906060828a031215610365575f80fd5b9093506060870135908082111561037a575f80fd5b818801915088601f83011261038d575f80fd5b81358181111561039b575f80fd5b8960208285010111156103ac575f80fd5b969995985093965060200194939250505056fea26469706673582212203723d0b12aae5d8c96774d3b5edf745796a547a6a2f2f5f830612c7fc98a9adc64736f6c63430008180033",
    "linkReferences": {}
  },
  "methodIdentifiers": {
    "onAttestCalled()": "e280f3d3",
    "onModuleCalled()": "9e8ad8b9",
    "onRevokeCalled()": "dfde9d56",
    "reset()": "d826f88f",
    "resolveAttestation((uint48,uint48,uint48,uint32,address,address,address,bytes32))": "34c85d07",
    "resolveAttestation((uint48,uint48,uint48,uint32,address,address,address,bytes32)[])": "cf629cee",
    "resolveModuleRegistration(address,address,(bytes32,address,bytes),bytes)": "f68f7e1c",
    "resolveRevocation((uint48,uint48,uint48,uint32,address,address,address,bytes32))": "8b6e59ff",
    "resolveRevocation((uint48,uint48,uint48,uint32,address,address,address,bytes32)[])": "d58807fe",
    "supportsInterface(bytes4)": "01ffc9a7"
  },
  "id": 96
}