{
  "abi": [
    {
      "type": "constructor",
      "inputs": [
        {
          "name": "ret",
          "type": "bool",
          "internalType": "bool"
        }
      ],
      "stateMutability": "nonpayable"
    },
    {
      "type": "function",
      "name": "supportsInterface",
      "inputs": [
        {
          "name": "interfaceId",
          "type": "bytes4",
          "internalType": "bytes4"
        }
      ],
      "outputs": [
        {
          "name": "",
          "type": "bool",
          "internalType": "bool"
        }
      ],
      "stateMutability": "pure"
    },
    {
      "type": "function",
      "name": "validateSchema",
      "inputs": [
        {
          "name": "attestation",
          "type": "tuple",
          "internalType": "struct AttestationRecord",
          "components": [
            {
              "name": "time",
              "type": "uint48",
              "internalType": "uint48"
            },
            {
              "name": "expirationTime",
              "type": "uint48",
              "internalType": "uint48"
            },
            {
              "name": "revocationTime",
              "type": "uint48",
              "internalType": "uint48"
            },
            {
              "name": "moduleTypes",
              "type": "uint32",
              "internalType": "PackedModuleTypes"
            },
            {
              "name": "moduleAddress",
              "type": "address",
              "internalType": "address"
            },
            {
              "name": "attester",
              "type": "address",
              "internalType": "address"
            },
            {
              "name": "dataPointer",
              "type": "address",
              "internalType": "AttestationDataRef"
            },
            {
              "name": "schemaUID",
              "type": "bytes32",
              "internalType": "SchemaUID"
            }
          ]
        }
      ],
      "outputs": [
        {
          "name": "",
          "type": "bool",
          "internalType": "bool"
        }
      ],
      "stateMutability": "view"
    },
    {
      "type": "function",
      "name": "validateSchema",
      "inputs": [
        {
          "name": "attestations",
          "type": "tuple[]",
          "internalType": "struct AttestationRecord[]",
          "components": [
            {
              "name": "time",
              "type": "uint48",
              "internalType": "uint48"
            },
            {
              "name": "expirationTime",
              "type": "uint48",
              "internalType": "uint48"
            },
            {
              "name": "revocationTime",
              "type": "uint48",
              "internalType": "uint48"
            },
            {
              "name": "moduleTypes",
              "type": "uint32",
              "internalType": "PackedModuleTypes"
            },
            {
              "name": "moduleAddress",
              "type": "address",
              "internalType": "address"
            },
            {
              "name": "attester",
              "type": "address",
              "internalType": "address"
            },
            {
              "name": "dataPointer",
              "type": "address",
              "internalType": "AttestationDataRef"
            },
            {
              "name": "schemaUID",
              "type": "bytes32",
              "internalType": "SchemaUID"
            }
          ]
        }
      ],
      "outputs": [
        {
          "name": "",
          "type": "bool",
          "internalType": "bool"
        }
      ],
      "stateMutability": "view"
    }
  ],
  "bytecode": {
    "object": "0x60a060405234801561000f575f80fd5b5060405161025d38038061025d83398101604081905261002e91610038565b151560805261005e565b5f60208284031215610048575f80fd5b81518015158114610057575f80fd5b9392505050565b6080516101e261007b5f395f8181607b015260ad01526101e25ff3fe608060405234801561000f575f80fd5b506004361061003f575f3560e01c806301ffc9a7146100435780637949978f1461006a578063cb6ec8261461009d575b5f80fd5b6100566100513660046100f8565b6100d2565b604051901515815260200160405180910390f35b610056610078366004610126565b507f000000000000000000000000000000000000000000000000000000000000000090565b6100566100ab36600461013d565b7f000000000000000000000000000000000000000000000000000000000000000092915050565b5f634dd8a05760e01b6001600160e01b03198316016100f357506001919050565b919050565b5f60208284031215610108575f80fd5b81356001600160e01b03198116811461011f575f80fd5b9392505050565b5f6101008284031215610137575f80fd5b50919050565b5f806020838503121561014e575f80fd5b823567ffffffffffffffff80821115610165575f80fd5b818501915085601f830112610178575f80fd5b813581811115610186575f80fd5b8660208260081b850101111561019a575f80fd5b6020929092019691955090935050505056fea2646970667358221220a61ad82b94a5123256c37418f13c941b73559f33e016ae20e29598398d92898864736f6c63430008180033",
    "linkReferences": {}
  },
  "methodIdentifiers": {
    "supportsInterface(bytes4)": "01ffc9a7",
    "validateSchema((uint48,uint48,uint48,uint32,address,address,address,bytes32))": "7949978f",
    "validateSchema((uint48,uint48,uint48,uint32,address,address,address,bytes32)[])": "cb6ec826"
  },
  "id": 97
}