{
  "abi": [
    {
      "type": "constructor",
      "inputs": [
        {
          "name": "ret",
          "type": "bool",
          "internalType": "bool"
        }
      ],
      "stateMutability": "nonpayable"
    },
    {
      "type": "function",
      "name": "supportsInterface",
      "inputs": [
        {
          "name": "interfaceId",
          "type": "bytes4",
          "internalType": "bytes4"
        }
      ],
      "outputs": [
        {
          "name": "",
          "type": "bool",
          "internalType": "bool"
        }
      ],
      "stateMutability": "pure"
    },
    {
      "type": "function",
      "name": "validateSchema",
      "inputs": [
        {
          "name": "attestation",
          "type": "tuple",
          "internalType": "struct AttestationRecord",
          "components": [
            {
              "name": "time",
              "type": "uint48",
              "internalType": "uint48"
            },
            {
              "name": "expirationTime",
              "type": "uint48",
              "internalType": "uint48"
            },
            {
              "name": "revocationTime",
              "type": "uint48",
              "internalType": "uint48"
            },
            {
              "name": "moduleTypes",
              "type": "uint32",
              "internalType": "PackedModuleTypes"
            },
            {
              "name": "moduleAddress",
              "type": "address",
              "internalType": "address"
            },
            {
              "name": "attester",
              "type": "address",
              "internalType": "address"
            },
            {
              "name": "dataPointer",
              "type": "address",
              "internalType": "AttestationDataRef"
            },
            {
              "name": "schemaUID",
              "type": "bytes32",
              "internalType": "SchemaUID"
            }
          ]
        }
      ],
      "outputs": [
        {
          "name": "",
          "type": "bool",
          "internalType": "bool"
        }
      ],
      "stateMutability": "view"
    },
    {
      "type": "function",
      "name": "validateSchema",
      "inputs": [
        {
          "name": "attestations",
          "type": "tuple[]",
          "internalType": "struct AttestationRecord[]",
          "components": [
            {
              "name": "time",
              "type": "uint48",
              "internalType": "uint48"
            },
            {
              "name": "expirationTime",
              "type": "uint48",
              "internalType": "uint48"
            },
            {
              "name": "revocationTime",
              "type": "uint48",
              "internalType": "uint48"
            },
            {
              "name": "moduleTypes",
              "type": "uint32",
              "internalType": "PackedModuleTypes"
            },
            {
              "name": "moduleAddress",
              "type": "address",
              "internalType": "address"
            },
            {
              "name": "attester",
              "type": "address",
              "internalType": "address"
            },
            {
              "name": "dataPointer",
              "type": "address",
              "internalType": "AttestationDataRef"
            },
            {
              "name": "schemaUID",
              "type": "bytes32",
              "internalType": "SchemaUID"
            }
          ]
        }
      ],
      "outputs": [
        {
          "name": "",
          "type": "bool",
          "internalType": "bool"
        }
      ],
      "stateMutability": "view"
    }
  ],
  "bytecode": {
    "object": "0x60a03461006857601f61020538819003918201601f19168301916001600160401b0383118484101761006c57808492602094604052833981010312610068575180151581036100685760805260405161018490816100818239608051818181608e015260d00152f35b5f80fd5b634e487b7160e01b5f52604160045260245ffdfe6080806040526004361015610012575f80fd5b5f3560e01c90816301ffc9a7146100f5575080637949978f146100b75763cb6ec8261461003d575f80fd5b346100b35760203660031901126100b35767ffffffffffffffff6004358181116100b357366023820112156100b35780600401359182116100b357602490369260081b0101116100b35760206040517f000000000000000000000000000000000000000000000000000000000000000015158152f35b5f80fd5b346100b3576101003660031901126100b35760206040517f000000000000000000000000000000000000000000000000000000000000000015158152f35b346100b35760203660031901126100b357600435906001600160e01b0319821682036100b35761012660209261012c565b15158152f35b5f91906001600160e01b03191663b2275fa960e01b1461014857565b6001915056fea26469706673582212207f633ed5f5d4fa6a13c86c925a26fdc121759b380b51b382b0767acc470794b264736f6c63430008180033",
    "linkReferences": {}
  },
  "methodIdentifiers": {
    "supportsInterface(bytes4)": "01ffc9a7",
    "validateSchema((uint48,uint48,uint48,uint32,address,address,address,bytes32))": "7949978f",
    "validateSchema((uint48,uint48,uint48,uint32,address,address,address,bytes32)[])": "cb6ec826"
  },
  "id": 97
}