{
  "abi": [
    {
      "type": "constructor",
      "inputs": [
        {
          "name": "ret",
          "type": "bool",
          "internalType": "bool"
        }
      ],
      "stateMutability": "nonpayable"
    },
    {
      "type": "function",
      "name": "isValidSignature",
      "inputs": [
        {
          "name": "hash",
          "type": "bytes32",
          "internalType": "bytes32"
        },
        {
          "name": "signature",
          "type": "bytes",
          "internalType": "bytes"
        }
      ],
      "outputs": [
        {
          "name": "",
          "type": "bytes4",
          "internalType": "bytes4"
        }
      ],
      "stateMutability": "view"
    }
  ],
  "bytecode": {
    "object": "0x60a0604052348015600e575f80fd5b50604051610209380380610209833981016040819052602b916034565b15156080526058565b5f602082840312156043575f80fd5b815180151581146051575f80fd5b9392505050565b60805161019a61006f5f395f6060015261019a5ff3fe608060405234801561000f575f80fd5b5060043610610029575f3560e01c80631626ba7e1461002d575b5f80fd5b61004061003b3660046100af565b61005d565b6040516001600160e01b0319909116815260200160405180910390f35b5f7f0000000000000000000000000000000000000000000000000000000000000000156100925750630b135d3f60e11b610095565b505f5b92915050565b634e487b7160e01b5f52604160045260245ffd5b5f80604083850312156100c0575f80fd5b82359150602083013567ffffffffffffffff808211156100de575f80fd5b818501915085601f8301126100f1575f80fd5b8135818111156101035761010361009b565b604051601f8201601f19908116603f0116810190838211818310171561012b5761012b61009b565b81604052828152886020848701011115610143575f80fd5b826020860160208301375f602084830101528095505050505050925092905056fea2646970667358221220c430934db690e1eb964f2866babe7a889ff64b27e15bbebd0bfe0cfc2aaf497564736f6c63430008190033",
    "linkReferences": {}
  },
  "methodIdentifiers": {
    "isValidSignature(bytes32,bytes)": "1626ba7e"
  },
  "id": 109
}