{
  "abi": [
    {
      "type": "function",
      "name": "attest",
      "inputs": [
        {
          "name": "schemaUID",
          "type": "bytes32",
          "internalType": "SchemaUID"
        },
        {
          "name": "attester",
          "type": "address",
          "internalType": "address"
        },
        {
          "name": "requests",
          "type": "tuple[]",
          "internalType": "struct AttestationRequest[]",
          "components": [
            {
              "name": "moduleAddress",
              "type": "address",
              "internalType": "address"
            },
            {
              "name": "expirationTime",
              "type": "uint48",
              "internalType": "uint48"
            },
            {
              "name": "data",
              "type": "bytes",
              "internalType": "bytes"
            },
            {
              "name": "moduleTypes",
              "type": "uint256[]",
              "internalType": "ModuleType[]"
            }
          ]
        },
        {
          "name": "signature",
          "type": "bytes",
          "internalType": "bytes"
        }
      ],
      "outputs": [],
      "stateMutability": "nonpayable"
    },
    {
      "type": "function",
      "name": "attest",
      "inputs": [
        {
          "name": "schemaUID",
          "type": "bytes32",
          "internalType": "SchemaUID"
        },
        {
          "name": "attester",
          "type": "address",
          "internalType": "address"
        },
        {
          "name": "request",
          "type": "tuple",
          "internalType": "struct AttestationRequest",
          "components": [
            {
              "name": "moduleAddress",
              "type": "address",
              "internalType": "address"
            },
            {
              "name": "expirationTime",
              "type": "uint48",
              "internalType": "uint48"
            },
            {
              "name": "data",
              "type": "bytes",
              "internalType": "bytes"
            },
            {
              "name": "moduleTypes",
              "type": "uint256[]",
              "internalType": "ModuleType[]"
            }
          ]
        },
        {
          "name": "signature",
          "type": "bytes",
          "internalType": "bytes"
        }
      ],
      "outputs": [],
      "stateMutability": "nonpayable"
    },
    {
      "type": "function",
      "name": "attest",
      "inputs": [
        {
          "name": "schemaUID",
          "type": "bytes32",
          "internalType": "SchemaUID"
        },
        {
          "name": "request",
          "type": "tuple",
          "internalType": "struct AttestationRequest",
          "components": [
            {
              "name": "moduleAddress",
              "type": "address",
              "internalType": "address"
            },
            {
              "name": "expirationTime",
              "type": "uint48",
              "internalType": "uint48"
            },
            {
              "name": "data",
              "type": "bytes",
              "internalType": "bytes"
            },
            {
              "name": "moduleTypes",
              "type": "uint256[]",
              "internalType": "ModuleType[]"
            }
          ]
        }
      ],
      "outputs": [],
      "stateMutability": "nonpayable"
    },
    {
      "type": "function",
      "name": "attest",
      "inputs": [
        {
          "name": "schemaUID",
          "type": "bytes32",
          "internalType": "SchemaUID"
        },
        {
          "name": "requests",
          "type": "tuple[]",
          "internalType": "struct AttestationRequest[]",
          "components": [
            {
              "name": "moduleAddress",
              "type": "address",
              "internalType": "address"
            },
            {
              "name": "expirationTime",
              "type": "uint48",
              "internalType": "uint48"
            },
            {
              "name": "data",
              "type": "bytes",
              "internalType": "bytes"
            },
            {
              "name": "moduleTypes",
              "type": "uint256[]",
              "internalType": "ModuleType[]"
            }
          ]
        }
      ],
      "outputs": [],
      "stateMutability": "nonpayable"
    },
    {
      "type": "function",
      "name": "attesterNonce",
      "inputs": [
        {
          "name": "attester",
          "type": "address",
          "internalType": "address"
        }
      ],
      "outputs": [
        {
          "name": "nonce",
          "type": "uint256",
          "internalType": "uint256"
        }
      ],
      "stateMutability": "view"
    },
    {
      "type": "function",
      "name": "calcModuleAddress",
      "inputs": [
        {
          "name": "salt",
          "type": "bytes32",
          "internalType": "bytes32"
        },
        {
          "name": "initCode",
          "type": "bytes",
          "internalType": "bytes"
        }
      ],
      "outputs": [
        {
          "name": "",
          "type": "address",
          "internalType": "address"
        }
      ],
      "stateMutability": "view"
    },
    {
      "type": "function",
      "name": "check",
      "inputs": [
        {
          "name": "module",
          "type": "address",
          "internalType": "address"
        },
        {
          "name": "attesters",
          "type": "address[]",
          "internalType": "address[]"
        },
        {
          "name": "threshold",
          "type": "uint256",
          "internalType": "uint256"
        }
      ],
      "outputs": [],
      "stateMutability": "view"
    },
    {
      "type": "function",
      "name": "check",
      "inputs": [
        {
          "name": "module",
          "type": "address",
          "internalType": "address"
        },
        {
          "name": "moduleType",
          "type": "uint256",
          "internalType": "ModuleType"
        },
        {
          "name": "attesters",
          "type": "address[]",
          "internalType": "address[]"
        },
        {
          "name": "threshold",
          "type": "uint256",
          "internalType": "uint256"
        }
      ],
      "outputs": [],
      "stateMutability": "view"
    },
    {
      "type": "function",
      "name": "check",
      "inputs": [
        {
          "name": "module",
          "type": "address",
          "internalType": "address"
        },
        {
          "name": "moduleType",
          "type": "uint256",
          "internalType": "ModuleType"
        }
      ],
      "outputs": [],
      "stateMutability": "view"
    },
    {
      "type": "function",
      "name": "check",
      "inputs": [
        {
          "name": "module",
          "type": "address",
          "internalType": "address"
        }
      ],
      "outputs": [],
      "stateMutability": "view"
    },
    {
      "type": "function",
      "name": "checkForAccount",
      "inputs": [
        {
          "name": "smartAccount",
          "type": "address",
          "internalType": "address"
        },
        {
          "name": "module",
          "type": "address",
          "internalType": "address"
        }
      ],
      "outputs": [],
      "stateMutability": "view"
    },
    {
      "type": "function",
      "name": "checkForAccount",
      "inputs": [
        {
          "name": "smartAccount",
          "type": "address",
          "internalType": "address"
        },
        {
          "name": "module",
          "type": "address",
          "internalType": "address"
        },
        {
          "name": "moduleType",
          "type": "uint256",
          "internalType": "ModuleType"
        }
      ],
      "outputs": [],
      "stateMutability": "view"
    },
    {
      "type": "function",
      "name": "deployModule",
      "inputs": [
        {
          "name": "salt",
          "type": "bytes32",
          "internalType": "bytes32"
        },
        {
          "name": "resolverUID",
          "type": "bytes32",
          "internalType": "ResolverUID"
        },
        {
          "name": "initCode",
          "type": "bytes",
          "internalType": "bytes"
        },
        {
          "name": "metadata",
          "type": "bytes",
          "internalType": "bytes"
        },
        {
          "name": "resolverContext",
          "type": "bytes",
          "internalType": "bytes"
        }
      ],
      "outputs": [
        {
          "name": "moduleAddress",
          "type": "address",
          "internalType": "address"
        }
      ],
      "stateMutability": "payable"
    },
    {
      "type": "function",
      "name": "deployViaFactory",
      "inputs": [
        {
          "name": "factory",
          "type": "address",
          "internalType": "address"
        },
        {
          "name": "callOnFactory",
          "type": "bytes",
          "internalType": "bytes"
        },
        {
          "name": "metadata",
          "type": "bytes",
          "internalType": "bytes"
        },
        {
          "name": "resolverUID",
          "type": "bytes32",
          "internalType": "ResolverUID"
        },
        {
          "name": "resolverContext",
          "type": "bytes",
          "internalType": "bytes"
        }
      ],
      "outputs": [
        {
          "name": "moduleAddress",
          "type": "address",
          "internalType": "address"
        }
      ],
      "stateMutability": "payable"
    },
    {
      "type": "function",
      "name": "eip712Domain",
      "inputs": [],
      "outputs": [
        {
          "name": "fields",
          "type": "bytes1",
          "internalType": "bytes1"
        },
        {
          "name": "name",
          "type": "string",
          "internalType": "string"
        },
        {
          "name": "version",
          "type": "string",
          "internalType": "string"
        },
        {
          "name": "chainId",
          "type": "uint256",
          "internalType": "uint256"
        },
        {
          "name": "verifyingContract",
          "type": "address",
          "internalType": "address"
        },
        {
          "name": "salt",
          "type": "bytes32",
          "internalType": "bytes32"
        },
        {
          "name": "extensions",
          "type": "uint256[]",
          "internalType": "uint256[]"
        }
      ],
      "stateMutability": "view"
    },
    {
      "type": "function",
      "name": "findAttestation",
      "inputs": [
        {
          "name": "module",
          "type": "address",
          "internalType": "address"
        },
        {
          "name": "attester",
          "type": "address",
          "internalType": "address"
        }
      ],
      "outputs": [
        {
          "name": "attestation",
          "type": "tuple",
          "internalType": "struct AttestationRecord",
          "components": [
            {
              "name": "time",
              "type": "uint48",
              "internalType": "uint48"
            },
            {
              "name": "expirationTime",
              "type": "uint48",
              "internalType": "uint48"
            },
            {
              "name": "revocationTime",
              "type": "uint48",
              "internalType": "uint48"
            },
            {
              "name": "moduleTypes",
              "type": "uint32",
              "internalType": "PackedModuleTypes"
            },
            {
              "name": "moduleAddress",
              "type": "address",
              "internalType": "address"
            },
            {
              "name": "attester",
              "type": "address",
              "internalType": "address"
            },
            {
              "name": "dataPointer",
              "type": "address",
              "internalType": "AttestationDataRef"
            },
            {
              "name": "schemaUID",
              "type": "bytes32",
              "internalType": "SchemaUID"
            }
          ]
        }
      ],
      "stateMutability": "view"
    },
    {
      "type": "function",
      "name": "findAttestations",
      "inputs": [
        {
          "name": "module",
          "type": "address",
          "internalType": "address"
        },
        {
          "name": "attesters",
          "type": "address[]",
          "internalType": "address[]"
        }
      ],
      "outputs": [
        {
          "name": "attestations",
          "type": "tuple[]",
          "internalType": "struct AttestationRecord[]",
          "components": [
            {
              "name": "time",
              "type": "uint48",
              "internalType": "uint48"
            },
            {
              "name": "expirationTime",
              "type": "uint48",
              "internalType": "uint48"
            },
            {
              "name": "revocationTime",
              "type": "uint48",
              "internalType": "uint48"
            },
            {
              "name": "moduleTypes",
              "type": "uint32",
              "internalType": "PackedModuleTypes"
            },
            {
              "name": "moduleAddress",
              "type": "address",
              "internalType": "address"
            },
            {
              "name": "attester",
              "type": "address",
              "internalType": "address"
            },
            {
              "name": "dataPointer",
              "type": "address",
              "internalType": "AttestationDataRef"
            },
            {
              "name": "schemaUID",
              "type": "bytes32",
              "internalType": "SchemaUID"
            }
          ]
        }
      ],
      "stateMutability": "view"
    },
    {
      "type": "function",
      "name": "findModule",
      "inputs": [
        {
          "name": "moduleAddress",
          "type": "address",
          "internalType": "address"
        }
      ],
      "outputs": [
        {
          "name": "moduleRecord",
          "type": "tuple",
          "internalType": "struct ModuleRecord",
          "components": [
            {
              "name": "resolverUID",
              "type": "bytes32",
              "internalType": "ResolverUID"
            },
            {
              "name": "sender",
              "type": "address",
              "internalType": "address"
            },
            {
              "name": "metadata",
              "type": "bytes",
              "internalType": "bytes"
            }
          ]
        }
      ],
      "stateMutability": "view"
    },
    {
      "type": "function",
      "name": "findResolver",
      "inputs": [
        {
          "name": "uid",
          "type": "bytes32",
          "internalType": "ResolverUID"
        }
      ],
      "outputs": [
        {
          "name": "",
          "type": "tuple",
          "internalType": "struct ResolverRecord",
          "components": [
            {
              "name": "resolver",
              "type": "address",
              "internalType": "contract IExternalResolver"
            },
            {
              "name": "resolverOwner",
              "type": "address",
              "internalType": "address"
            }
          ]
        }
      ],
      "stateMutability": "view"
    },
    {
      "type": "function",
      "name": "findSchema",
      "inputs": [
        {
          "name": "uid",
          "type": "bytes32",
          "internalType": "SchemaUID"
        }
      ],
      "outputs": [
        {
          "name": "",
          "type": "tuple",
          "internalType": "struct SchemaRecord",
          "components": [
            {
              "name": "registeredAt",
              "type": "uint48",
              "internalType": "uint48"
            },
            {
              "name": "validator",
              "type": "address",
              "internalType": "contract IExternalSchemaValidator"
            },
            {
              "name": "schema",
              "type": "string",
              "internalType": "string"
            }
          ]
        }
      ],
      "stateMutability": "view"
    },
    {
      "type": "function",
      "name": "findTrustedAttesters",
      "inputs": [
        {
          "name": "smartAccount",
          "type": "address",
          "internalType": "address"
        }
      ],
      "outputs": [
        {
          "name": "attesters",
          "type": "address[]",
          "internalType": "address[]"
        }
      ],
      "stateMutability": "view"
    },
    {
      "type": "function",
      "name": "getDigest",
      "inputs": [
        {
          "name": "request",
          "type": "tuple",
          "internalType": "struct AttestationRequest",
          "components": [
            {
              "name": "moduleAddress",
              "type": "address",
              "internalType": "address"
            },
            {
              "name": "expirationTime",
              "type": "uint48",
              "internalType": "uint48"
            },
            {
              "name": "data",
              "type": "bytes",
              "internalType": "bytes"
            },
            {
              "name": "moduleTypes",
              "type": "uint256[]",
              "internalType": "ModuleType[]"
            }
          ]
        },
        {
          "name": "attester",
          "type": "address",
          "internalType": "address"
        }
      ],
      "outputs": [
        {
          "name": "digest",
          "type": "bytes32",
          "internalType": "bytes32"
        }
      ],
      "stateMutability": "view"
    },
    {
      "type": "function",
      "name": "getDigest",
      "inputs": [
        {
          "name": "requests",
          "type": "tuple[]",
          "internalType": "struct RevocationRequest[]",
          "components": [
            {
              "name": "moduleAddress",
              "type": "address",
              "internalType": "address"
            }
          ]
        },
        {
          "name": "attester",
          "type": "address",
          "internalType": "address"
        }
      ],
      "outputs": [
        {
          "name": "digest",
          "type": "bytes32",
          "internalType": "bytes32"
        }
      ],
      "stateMutability": "view"
    },
    {
      "type": "function",
      "name": "getDigest",
      "inputs": [
        {
          "name": "request",
          "type": "tuple",
          "internalType": "struct RevocationRequest",
          "components": [
            {
              "name": "moduleAddress",
              "type": "address",
              "internalType": "address"
            }
          ]
        },
        {
          "name": "attester",
          "type": "address",
          "internalType": "address"
        }
      ],
      "outputs": [
        {
          "name": "digest",
          "type": "bytes32",
          "internalType": "bytes32"
        }
      ],
      "stateMutability": "view"
    },
    {
      "type": "function",
      "name": "getDigest",
      "inputs": [
        {
          "name": "requests",
          "type": "tuple[]",
          "internalType": "struct AttestationRequest[]",
          "components": [
            {
              "name": "moduleAddress",
              "type": "address",
              "internalType": "address"
            },
            {
              "name": "expirationTime",
              "type": "uint48",
              "internalType": "uint48"
            },
            {
              "name": "data",
              "type": "bytes",
              "internalType": "bytes"
            },
            {
              "name": "moduleTypes",
              "type": "uint256[]",
              "internalType": "ModuleType[]"
            }
          ]
        },
        {
          "name": "attester",
          "type": "address",
          "internalType": "address"
        }
      ],
      "outputs": [
        {
          "name": "digest",
          "type": "bytes32",
          "internalType": "bytes32"
        }
      ],
      "stateMutability": "view"
    },
    {
      "type": "function",
      "name": "registerModule",
      "inputs": [
        {
          "name": "resolverUID",
          "type": "bytes32",
          "internalType": "ResolverUID"
        },
        {
          "name": "moduleAddress",
          "type": "address",
          "internalType": "address"
        },
        {
          "name": "metadata",
          "type": "bytes",
          "internalType": "bytes"
        },
        {
          "name": "resolverContext",
          "type": "bytes",
          "internalType": "bytes"
        }
      ],
      "outputs": [],
      "stateMutability": "nonpayable"
    },
    {
      "type": "function",
      "name": "registerResolver",
      "inputs": [
        {
          "name": "resolver",
          "type": "address",
          "internalType": "contract IExternalResolver"
        }
      ],
      "outputs": [
        {
          "name": "uid",
          "type": "bytes32",
          "internalType": "ResolverUID"
        }
      ],
      "stateMutability": "nonpayable"
    },
    {
      "type": "function",
      "name": "registerSchema",
      "inputs": [
        {
          "name": "schema",
          "type": "string",
          "internalType": "string"
        },
        {
          "name": "validator",
          "type": "address",
          "internalType": "contract IExternalSchemaValidator"
        }
      ],
      "outputs": [
        {
          "name": "uid",
          "type": "bytes32",
          "internalType": "SchemaUID"
        }
      ],
      "stateMutability": "nonpayable"
    },
    {
      "type": "function",
      "name": "revoke",
      "inputs": [
        {
          "name": "requests",
          "type": "tuple[]",
          "internalType": "struct RevocationRequest[]",
          "components": [
            {
              "name": "moduleAddress",
              "type": "address",
              "internalType": "address"
            }
          ]
        }
      ],
      "outputs": [],
      "stateMutability": "nonpayable"
    },
    {
      "type": "function",
      "name": "revoke",
      "inputs": [
        {
          "name": "attester",
          "type": "address",
          "internalType": "address"
        },
        {
          "name": "requests",
          "type": "tuple[]",
          "internalType": "struct RevocationRequest[]",
          "components": [
            {
              "name": "moduleAddress",
              "type": "address",
              "internalType": "address"
            }
          ]
        },
        {
          "name": "signature",
          "type": "bytes",
          "internalType": "bytes"
        }
      ],
      "outputs": [],
      "stateMutability": "nonpayable"
    },
    {
      "type": "function",
      "name": "revoke",
      "inputs": [
        {
          "name": "request",
          "type": "tuple",
          "internalType": "struct RevocationRequest",
          "components": [
            {
              "name": "moduleAddress",
              "type": "address",
              "internalType": "address"
            }
          ]
        }
      ],
      "outputs": [],
      "stateMutability": "nonpayable"
    },
    {
      "type": "function",
      "name": "revoke",
      "inputs": [
        {
          "name": "attester",
          "type": "address",
          "internalType": "address"
        },
        {
          "name": "request",
          "type": "tuple",
          "internalType": "struct RevocationRequest",
          "components": [
            {
              "name": "moduleAddress",
              "type": "address",
              "internalType": "address"
            }
          ]
        },
        {
          "name": "signature",
          "type": "bytes",
          "internalType": "bytes"
        }
      ],
      "outputs": [],
      "stateMutability": "nonpayable"
    },
    {
      "type": "function",
      "name": "setResolver",
      "inputs": [
        {
          "name": "uid",
          "type": "bytes32",
          "internalType": "ResolverUID"
        },
        {
          "name": "resolver",
          "type": "address",
          "internalType": "contract IExternalResolver"
        }
      ],
      "outputs": [],
      "stateMutability": "nonpayable"
    },
    {
      "type": "function",
      "name": "transferResolverOwnership",
      "inputs": [
        {
          "name": "uid",
          "type": "bytes32",
          "internalType": "ResolverUID"
        },
        {
          "name": "newOwner",
          "type": "address",
          "internalType": "address"
        }
      ],
      "outputs": [],
      "stateMutability": "nonpayable"
    },
    {
      "type": "function",
      "name": "trustAttesters",
      "inputs": [
        {
          "name": "threshold",
          "type": "uint8",
          "internalType": "uint8"
        },
        {
          "name": "attesters",
          "type": "address[]",
          "internalType": "address[]"
        }
      ],
      "outputs": [],
      "stateMutability": "nonpayable"
    },
    {
      "type": "event",
      "name": "Attested",
      "inputs": [
        {
          "name": "moduleAddress",
          "type": "address",
          "indexed": true,
          "internalType": "address"
        },
        {
          "name": "attester",
          "type": "address",
          "indexed": true,
          "internalType": "address"
        },
        {
          "name": "schemaUID",
          "type": "bytes32",
          "indexed": false,
          "internalType": "SchemaUID"
        },
        {
          "name": "sstore2Pointer",
          "type": "address",
          "indexed": true,
          "internalType": "AttestationDataRef"
        }
      ],
      "anonymous": false
    },
    {
      "type": "event",
      "name": "ModuleRegistration",
      "inputs": [
        {
          "name": "implementation",
          "type": "address",
          "indexed": true,
          "internalType": "address"
        }
      ],
      "anonymous": false
    },
    {
      "type": "event",
      "name": "NewResolver",
      "inputs": [
        {
          "name": "uid",
          "type": "bytes32",
          "indexed": true,
          "internalType": "ResolverUID"
        },
        {
          "name": "resolver",
          "type": "address",
          "indexed": true,
          "internalType": "address"
        }
      ],
      "anonymous": false
    },
    {
      "type": "event",
      "name": "NewResolverOwner",
      "inputs": [
        {
          "name": "uid",
          "type": "bytes32",
          "indexed": true,
          "internalType": "ResolverUID"
        },
        {
          "name": "newOwner",
          "type": "address",
          "indexed": false,
          "internalType": "address"
        }
      ],
      "anonymous": false
    },
    {
      "type": "event",
      "name": "NewTrustedAttesters",
      "inputs": [
        {
          "name": "smartAccount",
          "type": "address",
          "indexed": true,
          "internalType": "address"
        }
      ],
      "anonymous": false
    },
    {
      "type": "event",
      "name": "ResolverRevocationError",
      "inputs": [
        {
          "name": "resolver",
          "type": "address",
          "indexed": false,
          "internalType": "contract IExternalResolver"
        }
      ],
      "anonymous": false
    },
    {
      "type": "event",
      "name": "Revoked",
      "inputs": [
        {
          "name": "moduleAddress",
          "type": "address",
          "indexed": true,
          "internalType": "address"
        },
        {
          "name": "revoker",
          "type": "address",
          "indexed": true,
          "internalType": "address"
        },
        {
          "name": "schema",
          "type": "bytes32",
          "indexed": false,
          "internalType": "SchemaUID"
        }
      ],
      "anonymous": false
    },
    {
      "type": "event",
      "name": "SchemaRegistered",
      "inputs": [
        {
          "name": "uid",
          "type": "bytes32",
          "indexed": true,
          "internalType": "SchemaUID"
        },
        {
          "name": "registerer",
          "type": "address",
          "indexed": true,
          "internalType": "address"
        }
      ],
      "anonymous": false
    },
    {
      "type": "error",
      "name": "AccessDenied",
      "inputs": []
    },
    {
      "type": "error",
      "name": "AlreadyAttested",
      "inputs": []
    },
    {
      "type": "error",
      "name": "AlreadyRegistered",
      "inputs": [
        {
          "name": "module",
          "type": "address",
          "internalType": "address"
        }
      ]
    },
    {
      "type": "error",
      "name": "AlreadyRevoked",
      "inputs": []
    },
    {
      "type": "error",
      "name": "AttestationNotFound",
      "inputs": []
    },
    {
      "type": "error",
      "name": "DifferentResolvers",
      "inputs": []
    },
    {
      "type": "error",
      "name": "ExternalError_ModuleRegistration",
      "inputs": []
    },
    {
      "type": "error",
      "name": "ExternalError_ResolveAttestation",
      "inputs": []
    },
    {
      "type": "error",
      "name": "ExternalError_ResolveRevocation",
      "inputs": []
    },
    {
      "type": "error",
      "name": "ExternalError_SchemaValidation",
      "inputs": []
    },
    {
      "type": "error",
      "name": "FactoryCallFailed",
      "inputs": [
        {
          "name": "factory",
          "type": "address",
          "internalType": "address"
        }
      ]
    },
    {
      "type": "error",
      "name": "InsufficientAttestations",
      "inputs": []
    },
    {
      "type": "error",
      "name": "InvalidAddress",
      "inputs": []
    },
    {
      "type": "error",
      "name": "InvalidAttestation",
      "inputs": []
    },
    {
      "type": "error",
      "name": "InvalidDeployment",
      "inputs": []
    },
    {
      "type": "error",
      "name": "InvalidExpirationTime",
      "inputs": []
    },
    {
      "type": "error",
      "name": "InvalidModuleType",
      "inputs": []
    },
    {
      "type": "error",
      "name": "InvalidModuleTypes",
      "inputs": []
    },
    {
      "type": "error",
      "name": "InvalidResolver",
      "inputs": [
        {
          "name": "resolver",
          "type": "address",
          "internalType": "contract IExternalResolver"
        }
      ]
    },
    {
      "type": "error",
      "name": "InvalidResolverUID",
      "inputs": [
        {
          "name": "uid",
          "type": "bytes32",
          "internalType": "ResolverUID"
        }
      ]
    },
    {
      "type": "error",
      "name": "InvalidSalt",
      "inputs": []
    },
    {
      "type": "error",
      "name": "InvalidSchema",
      "inputs": []
    },
    {
      "type": "error",
      "name": "InvalidSchemaValidator",
      "inputs": [
        {
          "name": "validator",
          "type": "address",
          "internalType": "contract IExternalSchemaValidator"
        }
      ]
    },
    {
      "type": "error",
      "name": "InvalidSignature",
      "inputs": []
    },
    {
      "type": "error",
      "name": "InvalidThreshold",
      "inputs": []
    },
    {
      "type": "error",
      "name": "InvalidTrustedAttesterInput",
      "inputs": []
    },
    {
      "type": "error",
      "name": "ModuleAddressIsNotContract",
      "inputs": [
        {
          "name": "moduleAddress",
          "type": "address",
          "internalType": "address"
        }
      ]
    },
    {
      "type": "error",
      "name": "ModuleNotFoundInRegistry",
      "inputs": [
        {
          "name": "module",
          "type": "address",
          "internalType": "address"
        }
      ]
    },
    {
      "type": "error",
      "name": "NoTrustedAttestersFound",
      "inputs": []
    },
    {
      "type": "error",
      "name": "ResolverAlreadyExists",
      "inputs": []
    },
    {
      "type": "error",
      "name": "RevokedAttestation",
      "inputs": [
        {
          "name": "attester",
          "type": "address",
          "internalType": "address"
        }
      ]
    },
    {
      "type": "error",
      "name": "SchemaAlreadyExists",
      "inputs": [
        {
          "name": "uid",
          "type": "bytes32",
          "internalType": "SchemaUID"
        }
      ]
    }
  ],
  "bytecode": {
    "object": "0x61014060408181523462000159576001600160401b0391610146818101848111838210176200013b57829162003f09833903905ff080156200014f576080523060a0524660c052805191818301838110828211176200013b5782526012835260208301715268696e6573746f6e65526567697374727960701b815282519083820192828410908411176200013b57602060049260a0948652838152019463076312e360e41b86525190209320928060e052610100938085528351917f8b73c3c69bb8fe3d512ecc4cf759cc79239f7b179b0ffacaa9a75d522b39400f835260208301528382015246606082015230608082015220906101209182525190613dab92836200015e8439608051836117b5015260a051836128fb015260c0518361291e015260e0518361298e015251826129b4015251816128da0152f35b634e487b7160e01b5f52604160045260245ffd5b50513d5f823e3d90fd5b5f80fdfe60806040526004361015610011575f80fd5b5f3560e01c806303b79c841461024457806304a1f2981461023f5780630bb30abc1461023a5780631896f70a146102355780631d4d98101461023057806329757d371461022b5780632b30c899146102265780632ed94467146102215780634990a6821461021c5780634c13560c146102175780634ece78ca14610212578063529562a11461020d57806355f47dde14610208578063617734d01461020357806370d2af24146101fe57806371c61a2b146101f957806377efcab4146101f45780637cb2afd8146101ef57806384b0196e146101ea57806388dc678d146101e55780638e6ec824146101e0578063945e3641146101db57806396fb7217146101d65780639f3e1b53146101d1578063b060cb1e146101cc578063b50b706b146101c7578063b65d1012146101c2578063b6b791a1146101bd578063c23697a8146101b8578063d9048624146101b3578063dd0fd278146101ae578063e14f3d32146101a9578063f05c04e1146101a4578063f095ec1b1461019f5763f190e2b11461019a575f80fd5b6116e8565b611698565b6114b9565b611478565b611407565b6113af565b611376565b61126f565b6111f2565b6111b7565b6110b2565b610fd7565b610fad565b610f71565b610ee9565b610e47565b610da8565b610cb6565b610c93565b610c28565b610bd1565b610b6e565b610abc565b610a87565b6109ed565b6109d6565b610974565b610926565b610857565b6106f3565b6105f3565b61051c565b6104d2565b61040c565b61027a565b9181601f84011215610276578235916001600160401b038311610276576020838186019501011161027657565b5f80fd5b60a03660031901126102765760046001600160401b036024358235604435838111610276576102ac9036908601610249565b929093606435818111610276576102c69036908801610249565b929091608435908111610276576102e09036908901610249565b979095825f525f60205260405f209560018060a01b039182600189015416156103b357338260601c14158061039b575b61038a579061032d81836103278d8796369161195e565b9c613487565b9980519060200134f598169088160361037b575061035861035d959361037798959388933385612504565b61257f565b6040516001600160a01b0390911681529081906020820190565b0390f35b60405163e6c4247b60e01b8152fd5b6040516381e69d9b60e01b81528490fd5b506bffffffffffffffffffffffff1982161515610310565b60405163f184406b60e01b8152808501869052602490fd5b6001600160a01b0381160361027657565b9181601f84011215610276578235916001600160401b038311610276576020808501948460051b01011161027657565b3461027657608036600319011261027657602435610429816103cb565b6001600160401b03604435818111610276576104499036906004016103dc565b91606435908111610276576104a56104686104ac923690600401610249565b919060018060a01b0387165f52600560205261049d61049860405f2061048e815461188f565b809155888861277b565b6128d8565b92369161195e565b90856129ea565b156104c0576104be9260043590612adb565b005b604051638baa579f60e01b8152600490fd5b34610276576060366003190112610276576004356104ef816103cb565b602435906001600160401b038211610276576105126104be9236906004016103dc565b90604435926119eb565b3461027657604036600319011261027657602435610539816103cb565b6001600160a01b0381168015908115610581575b5061055e576104be90600435611af4565b60405163f9492e7560e01b81526001600160a01b03919091166004820152602490fd5b6040516301ffc9a760e01b81526314f0f87d60e21b60048201529150602090829060249082905afa9081156105ee575f916105bf575b50155f61054d565b6105e1915060203d6020116105e7575b6105d98183611923565b810190611ad1565b5f6105b7565b503d6105cf565b611ae9565b34610276576040366003190112610276576004356001600160401b03811161027657610623903690600401610249565b60243591610630836103cb565b6001600160a01b0383168015159081610688575b5061066757916106579161037793611d09565b6040519081529081906020820190565b604051630f09140760e01b81526001600160a01b0384166004820152602490fd5b6040516301ffc9a760e01b815263b2275fa960e01b60048201529150602090829060249082905afa9081156105ee575f916106c6575b50155f610644565b6106df915060203d6020116105e7576105d98183611923565b5f6106be565b908160809103126102765790565b3461027657608036600319011261027657602435610710816103cb565b6001600160401b03604435818111610276576107309036906004016106e5565b906064359081116102765761077e61074f610785923690600401610249565b919060018060a01b0386165f52600560205261049d61049860405f20610775815461188f565b80915587612ce6565b90846129ea565b156104c0576104be9160043590612dad565b60e0809165ffffffffffff808251168552806020830151166020860152604082015116604085015263ffffffff6060820151166060850152608081015160018060a01b03809116608086015260a08201511660a085015261080760c082015160c086019060018060a01b03169052565b0151910152565b60209060206040818301928281528551809452019301915f5b828110610835575050505090565b90919293826101008261084b6001948951610797565b01950193929101610827565b3461027657604080600319360112610276576004803590610877826103cb565b6024356001600160401b0381116102765791610898849336906004016103dc565b9390926108a485611e70565b946001600160a01b03909316925f5b8181106108c85760405180610377898261080e565b8061090a6109056108dc600194868b6119c5565b356108e6816103cb565b885f5286602052875f209060018060a01b03165f5260205260405f2090565b611ee0565b610914828a611ecc565b5261091f8189611ecc565b50016108b3565b3461027657608036600319011261027657600435610943816103cb565b604435906001600160401b038211610276576109666104be9236906004016103dc565b906064359260243590611f98565b34610276576020366003190112610276576004356001600160401b038111610276576109a76104be9136906004016103dc565b9033612e66565b6040906003190112610276576004356109c6816103cb565b906024356109d3816103cb565b90565b34610276576104be6109e7366109ae565b90612ee3565b3461027657606036600319011261027657600435610a0a816103cb565b6001600160401b0360243581811161027657610a2a9036906004016103dc565b91604435908111610276576104a5610a49610a79923690600401610249565b919060018060a01b0387165f52600560205261049d61049860405f20610a6f815461188f565b80915588886132ae565b156104c0576104be92612e66565b34610276576060366003190112610276576104be600435610aa7816103cb565b602435610ab3816103cb565b604435916130c8565b34610276576040366003190112610276576004356001600160401b03811161027657610aec9036906004016106e5565b602435610af8816103cb565b6001600160a01b03165f9081526005602052604090205460018101908110610b3157610498610b2991602093612ce6565b604051908152f35b61187b565b604060031982011261027657600435906001600160401b03821161027657610b60916004016103dc565b90916024356109d3816103cb565b3461027657610b7c36610b36565b6001600160a01b03165f908152600560205260409020546001810192908310610b3157602092610b2992610498926132ae565b602090600319011261027657600490565b602090602319011261027657602490565b3461027657604036600319011261027657610beb36610baf565b602435610bf7816103cb565b6001600160a01b03165f9081526005602052604090205460018101908110610b3157610498610b2991602093613386565b34610276576020366003190112610276575f6020604051610c48816118b1565b82815201526004355f525f6020526040805f208151610c66816118b1565b81546001600160a01b03908116808352600190930154811660209283019081528451938452511690820152f35b34610276576020366003190112610276576104be610cb036610baf565b3361341e565b3461027657604036600319011261027657600435602435610cd6816103cb565b5f828152602081905260409020600101546001600160a01b039081163303610d50575f8381526020818152604090912060010180546001600160a01b0319166001600160a01b0385161790557f7a2c54badf601a71ed23c3ec8c070bac418dfd4fb160e0351861983746662d7792909160405191168152a2005b604051634ca8886760e01b8152600490fd5b5f5b838110610d735750505f910152565b8181015183820152602001610d64565b90602091610d9c81518092818552858086019101610d62565b601f01601f1916010190565b34610276575f36600319011261027657610df6610dc361343b565b90604051928392600f60f81b8452610de860209360e0602087015260e0860190610d83565b908482036040860152610d83565b904660608401523060808401525f60a084015282820360c084015260206060519283815201916080915f5b828110610e3057505050500390f35b835185528695509381019392810192600101610e21565b3461027657608036600319011261027657600435602435610e67816103cb565b6001600160401b0360443581811161027657610e87903690600401610249565b9160643590811161027657610ea0903690600401610249565b939092855f525f60205260405f209260018060a01b0360018501541615610ed05790610358916104be978461242d565b60405163f184406b60e01b815260048101889052602490fd5b3461027657606036600319011261027657600435610f06816103cb565b610f0f36610bc0565b6044356001600160401b0381116102765761077e610f34610f63923690600401610249565b919060018060a01b0386165f52600560205261049d61049860405f20610f5a815461188f565b80915587613386565b156104c0576104be9161341e565b34610276576040366003190112610276576024356001600160401b03811161027657610fa46104be9136906004016106e5565b60043533612dad565b34610276576040366003190112610276576104be600435610fcd816103cb565b60243590336130c8565b3461027657602036600319011261027657600435610ff4816103cb565b6001600160a01b0381168015908115611019575b5061055e576106576103779161207c565b6040516301ffc9a760e01b81526314f0f87d60e21b60048201529150602090829060249082905afa9081156105ee575f91611057575b50155f611008565b611070915060203d6020116105e7576105d98183611923565b5f61104f565b608060406109d3936020845265ffffffffffff815116602085015260018060a01b03602082015116828501520151916060808201520190610d83565b3461027657602080600319360112610276576110cc612175565b506004355f526002815260405f2090604051906110e8826118d1565b825465ffffffffffff8116835260301c6001600160a01b031681830152604051600193840180545f95929392909161111f83611b66565b80865292600181169081156111955750600114611159575b6103778686611148818b0382611923565b604082015260405191829182611076565b5f908152838120939650925b82841061118257505050816103779461114892820101945f611137565b8054858501880152928601928101611165565b60ff191686860152505050151560051b8201019250611148816103775f611137565b34610276576020366003190112610276576004356111d4816103cb565b60018060a01b03165f526005602052602060405f2054604051908152f35b34610276576040366003190112610276576024356001600160401b038111610276576112256104be9136906004016103dc565b9060043533612adb565b90606060406109d3938051845260018060a01b0360208201511660208501520151918160408201520190610d83565b9060206109d392818152019061122f565b34610276576020806003193601126102765760043561128d816103cb565b611295612175565b5060018060a01b038091165f5260019160018152600260405f20604051936112bc856118d1565b81548552600182015416838501520190604051915f948154916112de83611b66565b80865292600181169081156113545750600114611318575b6103778686611307818b0382611923565b60408201526040519182918261125e565b5f908152838120939650925b82841061134157505050816103779461130792820101945f6112f6565b8054858501880152928601928101611324565b60ff191686860152505050151560051b8201019250611307816103775f6112f6565b34610276576020366003190112610276576104be600435611396816103cb565b33612ee3565b610100810192916113ad9190610797565b565b34610276576101006113f86109056113c6366109ae565b906113cf611e34565b5060018060a01b03165f52600460205260405f209060018060a01b03165f5260205260405f2090565b6114056040518092610797565bf35b34610276576020806003193601126102765761142d600435611428816103cb565b6121a2565b90604051918183928301818452825180915281604085019301915f5b82811061145857505050500390f35b83516001600160a01b031685528695509381019392810192600101611449565b346102765761148636610b36565b6001600160a01b03165f908152600560205260409020546001810192908310610b3157602092610b29926104989261277b565b3461027657604036600319011261027657600480359060ff821691828103610276576024356001600160401b038111610276576114f990369084016103dc565b91909261151661151261150d3686886122a1565b613be1565b1590565b61167f578215801561168e575b61167f576001600160a01b0361154161153c85876119b7565b6119d5565b161561167f57335f908152600360205260409020839095116116705750835460ff831661ffff199091161760089190911b61ff0016178355906115ae61158a61153c84846119b7565b845462010000600160b01b03191660109190911b62010000600160b01b0316178455565b6115b7826119df565b915f916001809501925b8481106115ef57337ff689fb4afceb60ac48a5ca8113a5a57cb15e51d317f0ec57e07340192d9fb4595f80a2005b8061166a61160261153c899487876119c5565b61164b61161b61153c6116148661206e565b89896119c5565b6001600160a01b039092165f90815260208990526040902033905b9060018060a01b03165f5260205260405f2090565b80546001600160a01b0319166001600160a01b03909216919091179055565b016115c1565b60405163aabd5a0960e01b8152fd5b60405163cd0ecff160e01b8152fd5b5060ff8311611523565b34610276576040366003190112610276576024356001600160401b038111610276576116d66116cd6020923690600401610249565b60043591613487565b6040516001600160a01b039091168152f35b60a03660031901126102765760048035611701816103cb565b6001600160401b03602435818111610276576117209036908501610249565b93604435838111610276576117389036908301610249565b949060643594608435908111610276576117559036908501610249565b949093611769875f525f60205260405f2090565b600181015490946001600160a01b0392909183161561185f573083831614611838579060209392916117af6040519c8d9586948594630d84daa960e31b8652850161232e565b039134907f0000000000000000000000000000000000000000000000000000000000000000165af19485156105ee57610377975f966117fb575b50859686926103589261035d9861242d565b61035d96509661182761035892939860203d602011611831575b61181f8183611923565b8101906122f9565b96509691906117e9565b503d611815565b6040516301b3a38360e21b81526001600160a01b0390921690820190815281906020010390fd5b60405163f184406b60e01b815290810189815281906020010390fd5b634e487b7160e01b5f52601160045260245ffd5b5f198114610b315760010190565b634e487b7160e01b5f52604160045260245ffd5b604081019081106001600160401b038211176118cc57604052565b61189d565b606081019081106001600160401b038211176118cc57604052565b61010081019081106001600160401b038211176118cc57604052565b608081019081106001600160401b038211176118cc57604052565b90601f801991011681019081106001600160401b038211176118cc57604052565b604051906113ad826118d1565b604051906113ad826118ec565b9291926001600160401b0382116118cc5760405191611987601f8201601f191660200184611923565b829481845281830111610276578281602093845f960137010152565b634e487b7160e01b5f52603260045260245ffd5b90156119c05790565b6119a3565b91908110156119c05760051b0190565b356109d3816103cb565b8015610b31575f190190565b92919283158015611ac9575b15611a0e576040516305a74e6160e01b8152600490fd5b828410611ab7575f915f5b858110611a32576040516339093e6560e21b8152600490fd5b611a4061153c8288856119c5565b936001600160a01b0390811690851611611a665760405163cd0ecff160e01b8152600490fd5b611a8c611a87856116368660018060a01b03165f52600460205260405f2090565b612c22565b611aa7575b8415611a9f57600101611a19565b505050505050565b93611ab1906119df565b93611a91565b6040516339093e6560e21b8152600490fd5b5082156119f7565b90816020910312610276575180151581036102765790565b6040513d5f823e3d90fd5b5f8181526020819052604090206001015490916001600160a01b039182163303610d50575f83815260208190526040902080546001600160a01b0319166001600160a01b03831617905516907f335721b01866dc23fbee8b6b2c7b1e14d6f05c28cd35a2c934239f94095602a05f80a3565b90600182811c92168015611b94575b6020831014611b8057565b634e487b7160e01b5f52602260045260245ffd5b91607f1691611b75565b601f8211611bab57505050565b5f5260205f20906020601f840160051c83019310611be3575b601f0160051c01905b818110611bd8575050565b5f8155600101611bcd565b9091508190611bc4565b815181546020808501516601000000000000600160d01b0360309190911b166001600160d01b031990921665ffffffffffff909316929092171782556040909201518051909392600192830192906001600160401b0383116118cc57611c5d83611c578654611b66565b86611b9e565b602091601f8411600114611c9f5750508190611c909394955f92611c94575b50508160011b915f199060031b1c19161790565b9055565b015190505f80611c7c565b95601f92919219841696611cb6865f5260205f2090565b935f915b898310611cf25750505083600195969710611cda575b505050811b019055565b01515f1960f88460031b161c191690555f8080611cd0565b838501518655948501949381019391810191611cba565b9291611d4265ffffffffffff9460405193611d23856118d1565b42871685526001600160a01b039093166020850190815292369161195e565b9081604084015251611d976048604051809360208201953360601b8752611d73815180926020603487019101610d62565b8201906001600160601b03199060601b166034820152036028810184520182611923565b51902092611dbc611db0855f52600260205260405f2090565b5465ffffffffffff1690565b16611e0457611ddc90611dd7845f52600260205260405f2090565b611bed565b33827fd16733fb8c2a502f4e1d1d63970cbab355e37ff6d6d12a215b7d0197ea5535f45f80a3565b604051635988c65560e11b815260048101849052602490fd5b6001600160401b0381116118cc5760051b60200190565b60405190611e41826118ec565b5f60e0838281528260208201528260408201528260608201528260808201528260a08201528260c08201520152565b90611e7a82611e1d565b611e876040519182611923565b8281528092611e98601f1991611e1d565b01905f5b828110611ea857505050565b602090611eb3611e34565b82828501015201611e9c565b8051156119c05760200190565b80518210156119c05760209160051b010190565b90604051611eed816118ec565b60e060048294611f5863ffffffff8254611f4565ffffffffffff611f1b8184168a9065ffffffffffff169052565b65ffffffffffff603084901c82161660208a01528260601c16604089019065ffffffffffff169052565b60901c16606086019063ffffffff169052565b60018101546001600160a01b0316608085015260028101546001600160a01b031660a085015260038101546001600160a01b031660c08501520154910152565b93929384158015612066575b15611fbb576040516305a74e6160e01b8152600490fd5b838510611ab7575f925f5b868110611fdf576040516339093e6560e21b8152600490fd5b611fed61153c8289856119c5565b946001600160a01b03908116908616116120135760405163cd0ecff160e01b8152600490fd5b61203a84612035876116368760018060a01b03165f52600460205260405f2090565b612c6e565b612056575b851561204d57600101611fc6565b50505050505050565b94612060906119df565b9461203f565b508315611fa4565b9060018201809211610b3157565b906040519161208a836118b1565b60018060a01b03928382169182825233602083015260405160208101913360601b83526001600160601b03199060601b166034820152602881526120cd816118d1565b51902093845f525f6020526120ed8160405f20541660018060a01b031690565b166121635761213c90612107855f525f60205260405f2090565b815181546001600160a01b039182166001600160a01b0319918216178355602090930151600190920180549093169116179055565b827f335721b01866dc23fbee8b6b2c7b1e14d6f05c28cd35a2c934239f94095602a05f80a3565b604051630f5f2ba160e21b8152600490fd5b60405190612182826118d1565b60606040835f81525f60208201520152565b5f19810191908211610b3157565b6001600160a01b038082165f9081526003602052604090208054939260ff8516929083156122975761221a6121d8859495611e1d565b926121e66040519485611923565b848452601f196121f586611e1d565b01366020860137839760101c1661220b84611ebf565b6001600160a01b039091169052565b6001938401845b84811061223057505050505050565b8061229161228761227a8661163661226161225461224e8e99612194565b8c611ecc565b516001600160a01b031690565b6001600160a01b03165f90815260208990526040902090565b546001600160a01b031690565b61220b8388611ecc565b01612221565b5060609450505050565b92916122ac82611e1d565b916122ba6040519384611923565b829481845260208094019160051b810192831161027657905b8282106122e05750505050565b83809183356122ee816103cb565b8152019101906122d3565b9081602091031261027657516109d3816103cb565b908060209392818452848401375f828201840152601f01601f1916010190565b6001600160a01b0390911681526040602082018190526109d39391019161230e565b81518155602080830151600180840180546001600160a01b0319166001600160a01b039390931692909217909155939291604090600201920151938451916001600160401b0383116118cc576123aa83611c578654611b66565b602091601f84116001146123dc5750508190611c909394955f92611c945750508160011b915f199060031b1c19161790565b95601f929192198416966123f3865f5260205f2090565b935f915b8983106124165750505083600195969710611cda57505050811b019055565b8385015186559485019493810193918101916123f7565b919392909361243a612175565b506001600160a01b0383165f908152600160205260409020546124e357823b156124d15761247a9161246a611944565b9586525f6020870152369161195e565b60408401526124a28361249d8360018060a01b03165f52600160205260405f2090565b612350565b6001600160a01b03167fbc854169953f463b8509327459b9a9785beb45f6cdafdad8e75b9a33f40167685f80a2565b604051637483e90760e01b8152600490fd5b6040516345ed80e960e01b81526001600160a01b0384166004820152602490fd5b9290919493612511612175565b506001600160a01b0384165f9081526001602052604090205461255e57833b156124d15761255761247a93612544611944565b9788526001600160a01b03166020880152565b369161195e565b6040516345ed80e960e01b81526001600160a01b0385166004820152602490fd5b915490936001600160a01b0391821680151594909291856125ba575b505050505090506125a857565b604051633b0cfdad60e01b8152600490fd5b602095509561260b5f926125f998604051998a9889978896633da3df8760e21b885233600489015216602487015260806044870152608486019061122f565b8481036003190160648601529161230e565b03925af19081156105ee575f9161262a575b5015805f8080808061259b565b612643915060203d6020116105e7576105d98183611923565b5f61261d565b91908110156119c05760051b81013590607e1981360301821215610276570190565b3565ffffffffffff811681036102765790565b903590601e198136030182121561027657018035906001600160401b0382116102765760200191813603831361027657565b903590601e198136030182121561027657018035906001600160401b03821161027657602001918160051b3603831361027657565b905f5b8181106126f55750505090565b82358452602093840193909201916001016126e8565b9094939265ffffffffffff60809360a08401977fe78ff87b9693fc54b8a43c3b84702ae7bfbb7fc6235105790033913428381e1f855260018060a01b0316602085015216604083015260608201520152565b6020929190612773849282815194859201610d62565b019081520190565b906060916060925f925b8084106127f757505050506127f18160206127e39351910120926040519283916020830195866040909392919360608101947f432f54a02ff5e7b0998295a12eea6e09f826e00e15ebb49cdb5dd6914e7eadf7825260208201520152565b03601f198101835282611923565b51902090565b909192936001906128ce612881856128c28661281761153c8c838d612649565b8a6128b38d6128a761287160209861286861283d8b612837878c8b612649565b0161266b565b94612849818b8a612649565b9961285c61255760409c8d81019061267e565b8d815191012098612649565b908101906126b0565b87519a8a8c01928c9284916126e5565b0399612895601f199b8c8101835282611923565b51902086519485938a8501978861270b565b03878101835282611923565b5190209051958693840161275d565b03908101835282611923565b9401929190612785565b7f00000000000000000000000000000000000000000000000000000000000000007f000000000000000000000000000000000000000000000000000000000000000030147f000000000000000000000000000000000000000000000000000000000000000046141615612963575b6719010000000000005f52601a52603a526042601820905f603a52565b5060a06040517f8b73c3c69bb8fe3d512ecc4cf759cc79239f7b179b0ffacaa9a75d522b39400f81527f000000000000000000000000000000000000000000000000000000000000000060208201527f0000000000000000000000000000000000000000000000000000000000000000604082015246606082015230608082015220612946565b5f9392906001600160a01b031680612a0157505050565b90919293506040805191845f5260209283850151835282855114612aa3575b6041855114612a69575b5f606052808352630b135d3f60e11b9485825260049687830152602482019687948552815186019081604493848601925afa503d01915afa9151141690565b6060808601515f1a85528386015181526001858160805f825afa5184183d151715612a95575050612a2a565b5f9091529252509392505050565b8483015160ff81901c601b0185526001600160ff1b031660609081526001858160805f825afa5184183d151715612a95575050612a20565b92612ae581611e70565b925f945f925b808410612bc657505050505f52600260205260405f205465ffffffffffff811615612bb45760301c6001600160a01b03168015159081612b57575b50612b4557612b3f6113ad925f525f60205260405f2090565b90613898565b604051635e1d867960e01b8152600490fd5b6040516365b7641360e11b815291506020908290815f81612b7b886004830161080e565b03925af19081156105ee575f91612b95575b50155f612b26565b612bae915060203d6020116105e7576105d98183611923565b5f612b8d565b604051635f9bd90760e11b8152600490fd5b90919295612bdf612bd8888487612649565b8487613665565b9190612beb8989611ecc565b5287612c005750600190965b01929190612aeb565b80979103612c1057600190612bf7565b604051631ac80ea760e01b8152600490fd5b5463ffffffff908060301c821681831615612c67578015159081612c5d575b50612c575760601c16612c5357600190565b5f90565b50505f90565b905042115f612c41565b5050505f90565b5463ffffffff908060301c821681831615612cde578015159081612cd4575b50612c67578060601c8216612c67578215159283612cb2575b505050612c5357600190565b612ccc9350612cc09061391c565b9060901c161615151590565b5f8080612ca6565b905042115f612c8d565b505050505f90565b803590612cf2826103cb565b612d66612d3e612d046020840161266b565b6128c2612d2c612d1a612557604088018861267e565b602081519101209560608101906126b0565b604051946020860192869284916126e5565b0393612d52601f1995868101835282611923565b51902060405195869360208501988961270b565b519020906040519060208201927fe6fb0252edfa0719f65bc4b7ff11df181a55bbef752d6bacaff6f4a369160b75845260408301526060820152606081526127f181611908565b91612db9919283613665565b915f52600260205260405f205465ffffffffffff811615612bb45760301c6001600160a01b03168015159081612e09575b50612b4557612e036113ad925f525f60205260405f2090565b9061392b565b604051637949978f60e01b815291506020908290815f81612e2d886004830161139c565b03925af19081156105ee575f91612e47575b50155f612dea565b612e60915060203d6020116105e7576105d98183611923565b5f612e3f565b9091612e7181611e70565b925f925f925b808410612e9a575050505090612e97915f525f60205260405f2090613ae7565b50565b90919293612eb2612eac8684876119c5565b846139a9565b9190612ebe8789611ecc565b5285612ed35750600190945b01929190612e77565b80959103612c1057600190612eca565b6001600160a01b0381165f9081526003602052604090209092909182549360ff85169160ff8660081c169560018060a01b039060101c1691821580156130c0575b15612f3b576040516305a74e6160e01b8152600490fd5b600196808803612ff25750612f67611a87846116368560018060a01b03165f52600460205260405f2090565b612fe95792948601925f925b868410612f8c576040516339093e6560e21b8152600490fd5b6001600160a01b03165f908152602085905260409020612fb19061227a908390611636565b92612fd3611a87856116368660018060a01b03165f52600460205260405f2090565b612fdf57870192612f73565b5050505050915050565b50505050915050565b959361301b611a8785611636869795969b999b60018060a01b03165f52600460205260405f2090565b6130b0575b939085809201905b85831061303c5750505050505050611ab757565b6001600160a01b03165f9081526020829052604090206130619061227a908590611636565b91613083611a87846116368860018060a01b03165f52600460205260405f2090565b6130a0575b871561309657860191613028565b5050505050505050565b966130aa906119df565b96613088565b956130ba906119df565b95613020565b508615612f24565b6001600160a01b0381165f908152600360205260409020909391909283549460ff86169260ff8760081c169660018060a01b039060101c1691821580156132a6575b15613121576040516305a74e6160e01b8152600490fd5b6001978089036131d2575061314e84612035856116368660018060a01b03165f52600460205260405f2090565b612fdf5793958701935f925b878410613173576040516339093e6560e21b8152600490fd5b6001600160a01b03165f9081526020869052604090206131989061227a908390611636565b926131bb85612035866116368760018060a01b03165f52600460205260405f2090565b6131c75788019261315a565b505050505050915050565b95969392909197946131fc84612035846116368d60018060a01b03165f52600460205260405f2090565b613296575b9385809101915b85821061321f5750505050505050909150611ab757565b90613266856120358c61324d61227a896116368a996116369b9060018060a01b03165f5260205260405f2090565b96879160018060a01b03165f52600460205260405f2090565b613286575b871561327a5786019091613208565b50505050505050509050565b96613290906119df565b9661326b565b956132a0906119df565b95613201565b50871561310a565b906060915f915b80831061330f5750508151602092830120604080517f7d1efebd1edb795fc2fef1b96025f39b311dd4c4481a7f726342969d70b423c894810194855290810191909152606081019390935250906127f181608081016127e3565b90919260019061337d61332661153c8786886119c5565b604080517fe772c71320d83e91a3076e1414875f1affb9dbb84c39717315b34b38b9b4ef8e60208083019182526001600160a01b039490941682840152828252601f1993926128c2929091906128b3606082611923565b930191906132b5565b35613390816103cb565b604080517fe772c71320d83e91a3076e1414875f1affb9dbb84c39717315b34b38b9b4ef8e602082019081526001600160a01b03909316818301529081526133d7816118d1565b519020906040519060208201927f0c087e39c84c32f053f4f3e0086d64914296a605bd371cfe0bdca1d506aed470845260408301526060820152606081526127f181611908565b612e979161342b916139a9565b5f525f60205260405f2090613ba8565b604051613447816118b1565b60128152715268696e6573746f6e65526567697374727960701b602082015290604051613473816118b1565b6004815263076312e360e41b602082015290565b906134ab602060405183819483830196873781015f83820152038084520182611923565b5190209060405191602083019160ff60f81b83523060601b602185015260358401526055830152605582526134df82611908565b905190206001600160a01b031690565b92916134fa82611e1d565b916135086040519384611923565b829481845260208094019160051b810192831161027657905b82821061352e5750505050565b81358152908301908301613521565b8151815465ffffffffffff191665ffffffffffff919091161781559060049060e09061359f613575602083015165ffffffffffff1690565b85546bffffffffffff000000000000191660309190911b6bffffffffffff00000000000016178555565b6135d96135b5604083015165ffffffffffff1690565b855465ffffffffffff60601b191660609190911b65ffffffffffff60601b16178555565b61360d6135ed606083015163ffffffff1690565b855463ffffffff60901b191660909190911b63ffffffff60901b16178555565b60808101516001850180546001600160a01b039283166001600160a01b03199182161790915560a083015160028701805491841691831691909117905560c08301516003870180549190931691161790550151910155565b929061366f611e34565b5065ffffffffffff8061368d611db0875f52600260205260405f2090565b1615612bb45780421694602085016136b26136a78261266b565b65ffffffffffff1690565b151580613884575b613872576136c7866119d5565b926136e6856116368660018060a01b03165f52600460205260405f2090565b549080821615159182613864575b5050613852576001600160a01b0383165f9081526001602052604090205495861561383157906137ba7ff68f1df3d74509783e9300e8637b046836c091fd39cdcd33b14b0ffdf6940d62926137a761377e61377961377261376761376161375b8c8e613c38565b87613c8a565b9761266b565b9460608101906126b0565b36916134ef565b613ce8565b9161379861378a611951565b65ffffffffffff909d168d52565b65ffffffffffff1660208c0152565b5f60408b015263ffffffff1660608a0152565b6001600160a01b03841660808901526001600160a01b03851660a08901526001600160a01b03811660c08901528260e08901526138148861380f876116368860018060a01b03165f52600460205260405f2090565b61353d565b6040519283526001600160a01b03908116948116931691602090a4565b604051634eb2dcd760e01b81526001600160a01b0385166004820152602490fd5b6040516335d9080560e01b8152600490fd5b60601c161590505f806136f4565b6040516308e8b93760e01b8152600490fd5b5086836138908361266b565b1611156136ba565b90546001600160a01b03168015613918576138cd6020915f936040519485809481936367b14e7760e11b83526004830161080e565b03925af19081156105ee575f916138f9575b50156138e757565b604051635b0ae41f60e01b8152600490fd5b613912915060203d6020116105e7576105d98183611923565b5f6138df565b5050565b60ff8111610b31576001901b90565b90546001600160a01b03168015159182613948575b50506138e757565b6020919250610104613971915f60405195869485936334c85d0760e01b85526004850190610797565b5af19081156105ee575f9161398a575b50155f80613940565b6139a3915060203d6020116105e7576105d98183611923565b5f613981565b916139b2611e34565b506139dc836116366139c3856119d5565b6001600160a01b03165f90815260046020526040902090565b6139e581611ee0565b93613a0b6139f2856119d5565b6001600160a01b03165f90815260016020526040902090565b5460c08601519094906001600160a01b031615613ad55760a08601516001600160a01b0392831693908316849003610d505765ffffffffffff9182613a5960408a015165ffffffffffff1690565b16613ac357815465ffffffffffff60601b19164290931660601b65ffffffffffff60601b169290921790557feee7de70b290c411a060d8bb9b1cba152a40d74147fef0974d7c2b25ac9b718a90613aaf906119d5565b60e0870151604051908152921691602090a3565b60405163905e710760e01b8152600490fd5b60405163120a2e7760e01b8152600490fd5b90546001600160a01b0316905f90828015613b9f57613b206020915f93604051948580948193636ac403ff60e11b83526004830161080e565b03925af15f9181613b7e575b50613b6e5750506040516001600160a01b039190911681527fbab8c8262d5baeb21d73c5944504fb6c26d6eb88d29af8653bd3382ad8fe56a990602090a15f90565b90929150613b7857565b60019150565b613b9891925060203d6020116105e7576105d98183611923565b905f613b2c565b50505050600190565b90546001600160a01b0316905f90828015613b9f57613b206020915f93604051948580948193638b6e59ff60e01b83526004830161139c565b906001809280516002811015613bf657505050565b90829160051b8101906020809101925b613c11575b50505050565b828192939496505193019283511194828418860215613c335792919083613c06565b613c0b565b6040519060208201926001600160601b0319809260601b16845260601b1660348201524260488201524660688201526068815260a081018181106001600160401b038211176118cc5760405251902090565b612557613c9b91604081019061267e565b908151906001820161ffff8160401b6bfd61000080600a3d393df300179111840152600b8201601584015ff5918215613cdb57526001600160a01b031690565b63301164255f526004601cfd5b80515f905f925b818410613d0357505063ffffffff91501690565b9091613d0f8483611ecc565b5190601f82118015613d5c575b613d4a57613d329163ffffffff8093819261391c565b16911601908111610b31576001909301929190613cef565b604051631092ef5760e11b8152600490fd5b5063ffffffff613d6b8361391c565b8216161515613d1c56fea26469706673582212208081e0a7045c94dd75db551d145cface245f39bc8924861820d2bdf286b7667964736f6c63430008180033608080604052346100165761012b908161001b8239f35b5f80fdfe608060049081361015600f575f80fd5b5f3560e01c636c26d548146021575f80fd5b604036600319011260df578135916001600160a01b038084169290919083850360df5760249485359067ffffffffffffffff9283831160df573660238401121560df57828501359380851160e357601f8501601f19908116603f011682019081118282101760e35760405283815260208101903689868601011160df575f60208681978c849801863783010152519134905af1925f51931560c9576020848460405191168152f35b6040516301b3a38360e21b815291820152839150fd5b5f80fd5b88604187634e487b7160e01b5f52525ffdfea264697066735822122043c5ee3ffdfaacf0d8814f6a54f157d0ee42a3f6069f4f63772c86dbc052148d64736f6c63430008180033",
    "linkReferences": {}
  },
  "methodIdentifiers": {
    "attest(bytes32,(address,uint48,bytes,uint256[]))": "945e3641",
    "attest(bytes32,(address,uint48,bytes,uint256[])[])": "b65d1012",
    "attest(bytes32,address,(address,uint48,bytes,uint256[]),bytes)": "29757d37",
    "attest(bytes32,address,(address,uint48,bytes,uint256[])[],bytes)": "04a1f298",
    "attesterNonce(address)": "b50b706b",
    "calcModuleAddress(bytes32,bytes)": "f095ec1b",
    "check(address)": "c23697a8",
    "check(address,address[],uint256)": "0bb30abc",
    "check(address,uint256)": "96fb7217",
    "check(address,uint256,address[],uint256)": "2ed94467",
    "checkForAccount(address,address)": "4c13560c",
    "checkForAccount(address,address,uint256)": "529562a1",
    "deployModule(bytes32,bytes32,bytes,bytes,bytes)": "03b79c84",
    "deployViaFactory(address,bytes,bytes,bytes32,bytes)": "f190e2b1",
    "eip712Domain()": "84b0196e",
    "findAttestation(address,address)": "d9048624",
    "findAttestations(address,address[])": "2b30c899",
    "findModule(address)": "b6b791a1",
    "findResolver(bytes32)": "71c61a2b",
    "findSchema(bytes32)": "b060cb1e",
    "findTrustedAttesters(address)": "dd0fd278",
    "getDigest((address),address)": "70d2af24",
    "getDigest((address)[],address)": "617734d0",
    "getDigest((address,uint48,bytes,uint256[]),address)": "55f47dde",
    "getDigest((address,uint48,bytes,uint256[])[],address)": "e14f3d32",
    "registerModule(bytes32,address,bytes,bytes)": "88dc678d",
    "registerResolver(address)": "9f3e1b53",
    "registerSchema(string,address)": "1d4d9810",
    "revoke((address))": "77efcab4",
    "revoke((address)[])": "4990a682",
    "revoke(address,(address),bytes)": "8e6ec824",
    "revoke(address,(address)[],bytes)": "4ece78ca",
    "setResolver(bytes32,address)": "1896f70a",
    "transferResolverOwnership(bytes32,address)": "7cb2afd8",
    "trustAttesters(uint8,address[])": "f05c04e1"
  },
  "id": 62
}